{
	"contracts/kipu-bank.sol": {
		"KipuBank": {
			"abi": [
				{
					"inputs": [
						{
							"internalType": "uint256",
							"name": "_withdrawLimit",
							"type": "uint256"
						},
						{
							"internalType": "uint256",
							"name": "_bankCap",
							"type": "uint256"
						}
					],
					"stateMutability": "nonpayable",
					"type": "constructor"
				},
				{
					"inputs": [
						{
							"internalType": "uint256",
							"name": "attempted",
							"type": "uint256"
						},
						{
							"internalType": "uint256",
							"name": "cap",
							"type": "uint256"
						}
					],
					"name": "DepositCapExceeded",
					"type": "error"
				},
				{
					"inputs": [],
					"name": "EthTransferFailed",
					"type": "error"
				},
				{
					"inputs": [
						{
							"internalType": "uint256",
							"name": "balance",
							"type": "uint256"
						},
						{
							"internalType": "uint256",
							"name": "needed",
							"type": "uint256"
						}
					],
					"name": "InsufficientBalance",
					"type": "error"
				},
				{
					"inputs": [
						{
							"internalType": "uint256",
							"name": "attempted",
							"type": "uint256"
						},
						{
							"internalType": "uint256",
							"name": "limit",
							"type": "uint256"
						}
					],
					"name": "WithdrawLimitExceeded",
					"type": "error"
				},
				{
					"inputs": [],
					"name": "ZeroAmount",
					"type": "error"
				},
				{
					"anonymous": false,
					"inputs": [
						{
							"indexed": false,
							"internalType": "address",
							"name": "account",
							"type": "address"
						},
						{
							"indexed": false,
							"internalType": "uint256",
							"name": "amount",
							"type": "uint256"
						},
						{
							"indexed": false,
							"internalType": "uint256",
							"name": "newBalance",
							"type": "uint256"
						}
					],
					"name": "Deposit",
					"type": "event"
				},
				{
					"anonymous": false,
					"inputs": [
						{
							"indexed": false,
							"internalType": "address",
							"name": "account",
							"type": "address"
						},
						{
							"indexed": false,
							"internalType": "uint256",
							"name": "amount",
							"type": "uint256"
						},
						{
							"indexed": false,
							"internalType": "uint256",
							"name": "newBalance",
							"type": "uint256"
						}
					],
					"name": "Withdraw",
					"type": "event"
				},
				{
					"inputs": [],
					"name": "bankCap",
					"outputs": [
						{
							"internalType": "uint256",
							"name": "",
							"type": "uint256"
						}
					],
					"stateMutability": "view",
					"type": "function"
				},
				{
					"inputs": [],
					"name": "deposit",
					"outputs": [],
					"stateMutability": "payable",
					"type": "function"
				},
				{
					"inputs": [],
					"name": "depositCount",
					"outputs": [
						{
							"internalType": "uint256",
							"name": "",
							"type": "uint256"
						}
					],
					"stateMutability": "view",
					"type": "function"
				},
				{
					"inputs": [],
					"name": "getBalance",
					"outputs": [
						{
							"internalType": "uint256",
							"name": "balance",
							"type": "uint256"
						}
					],
					"stateMutability": "view",
					"type": "function"
				},
				{
					"inputs": [],
					"name": "totalDeposited",
					"outputs": [
						{
							"internalType": "uint256",
							"name": "",
							"type": "uint256"
						}
					],
					"stateMutability": "view",
					"type": "function"
				},
				{
					"inputs": [
						{
							"internalType": "uint256",
							"name": "amount",
							"type": "uint256"
						}
					],
					"name": "withdraw",
					"outputs": [],
					"stateMutability": "nonpayable",
					"type": "function"
				},
				{
					"inputs": [],
					"name": "withdrawCount",
					"outputs": [
						{
							"internalType": "uint256",
							"name": "",
							"type": "uint256"
						}
					],
					"stateMutability": "view",
					"type": "function"
				},
				{
					"inputs": [],
					"name": "withdrawLimit",
					"outputs": [
						{
							"internalType": "uint256",
							"name": "",
							"type": "uint256"
						}
					],
					"stateMutability": "view",
					"type": "function"
				}
			],
			"devdoc": {
				"errors": {
					"DepositCapExceeded(uint256,uint256)": [
						{
							"params": {
								"attempted": "Nuevo total intentado.",
								"cap": "Límite global."
							}
						}
					],
					"InsufficientBalance(uint256,uint256)": [
						{
							"params": {
								"balance": "Saldo disponible.",
								"needed": "Cantidad pedida."
							}
						}
					],
					"WithdrawLimitExceeded(uint256,uint256)": [
						{
							"params": {
								"attempted": "Cantidad pedida.",
								"limit": "Límite por transacción."
							}
						}
					]
				},
				"events": {
					"Deposit(address,uint256,uint256)": {
						"params": {
							"account": "Dirección del usuario que deposita.",
							"amount": "Monto depositado en wei.",
							"newBalance": "Nuevo saldo del usuario."
						}
					},
					"Withdraw(address,uint256,uint256)": {
						"params": {
							"account": "Direccion del usuario que retira.",
							"amount": "Monto retirado en wei.",
							"newBalance": "Nuevo saldo del usuario."
						}
					}
				},
				"kind": "dev",
				"methods": {
					"constructor": {
						"params": {
							"_bankCap": "Tope global de depósitos (wei).",
							"_withdrawLimit": "Límite de retiro por transacción (wei)."
						}
					},
					"getBalance()": {
						"returns": {
							"balance": "Saldo de quien llama a la funcion (wei)."
						}
					},
					"withdraw(uint256)": {
						"params": {
							"amount": "Monto a retirar (wei)"
						}
					}
				},
				"title": "KipuBank",
				"version": 1
			},
			"evm": {
				"assembly": "    /* \"contracts/kipu-bank.sol\":162:5287  contract KipuBank {... */\n  mstore(0x40, 0xc0)\n    /* \"contracts/kipu-bank.sol\":2911:3115  constructor(uint256 _withdrawLimit, uint256 _bankCap) {... */\n  callvalue\n  dup1\n  iszero\n  tag_1\n  jumpi\n  0x00\n  dup1\n  revert\ntag_1:\n  pop\n  mload(0x40)\n  sub(codesize, bytecodeSize)\n  dup1\n  bytecodeSize\n  dup4\n  codecopy\n  dup2\n  dup2\n  add\n  0x40\n  mstore\n  dup2\n  add\n  swap1\n  tag_2\n  swap2\n  swap1\n  tag_3\n  jump\t// in\ntag_2:\n    /* \"contracts/kipu-bank.sol\":2998:2999  0 */\n  0x00\n    /* \"contracts/kipu-bank.sol\":2980:2994  _withdrawLimit */\n  dup3\n    /* \"contracts/kipu-bank.sol\":2980:2999  _withdrawLimit == 0 */\n  eq\n    /* \"contracts/kipu-bank.sol\":2980:3016  _withdrawLimit == 0 || _bankCap == 0 */\n  dup1\n  tag_6\n  jumpi\n  pop\n    /* \"contracts/kipu-bank.sol\":3015:3016  0 */\n  0x00\n    /* \"contracts/kipu-bank.sol\":3003:3011  _bankCap */\n  dup2\n    /* \"contracts/kipu-bank.sol\":3003:3016  _bankCap == 0 */\n  eq\n    /* \"contracts/kipu-bank.sol\":2980:3016  _withdrawLimit == 0 || _bankCap == 0 */\ntag_6:\n    /* \"contracts/kipu-bank.sol\":2976:3037  if (_withdrawLimit == 0 || _bankCap == 0) revert ZeroAmount() */\n  iszero\n  tag_7\n  jumpi\n    /* \"contracts/kipu-bank.sol\":3025:3037  ZeroAmount() */\n  mload(0x40)\n  0x1f2a200500000000000000000000000000000000000000000000000000000000\n  dup2\n  mstore\n  0x04\n  add\n  mload(0x40)\n  dup1\n  swap2\n  sub\n  swap1\n  revert\n    /* \"contracts/kipu-bank.sol\":2976:3037  if (_withdrawLimit == 0 || _bankCap == 0) revert ZeroAmount() */\ntag_7:\n    /* \"contracts/kipu-bank.sol\":3064:3078  _withdrawLimit */\n  dup2\n    /* \"contracts/kipu-bank.sol\":3048:3078  withdrawLimit = _withdrawLimit */\n  0x80\n  dup2\n  dup2\n  mstore\n  pop\n  pop\n    /* \"contracts/kipu-bank.sol\":3099:3107  _bankCap */\n  dup1\n    /* \"contracts/kipu-bank.sol\":3089:3107  bankCap = _bankCap */\n  0xa0\n  dup2\n  dup2\n  mstore\n  pop\n  pop\n    /* \"contracts/kipu-bank.sol\":2911:3115  constructor(uint256 _withdrawLimit, uint256 _bankCap) {... */\n  pop\n  pop\n    /* \"contracts/kipu-bank.sol\":162:5287  contract KipuBank {... */\n  jump(tag_8)\n    /* \"#utility.yul\":88:205   */\ntag_10:\n    /* \"#utility.yul\":197:198   */\n  0x00\n    /* \"#utility.yul\":194:195   */\n  dup1\n    /* \"#utility.yul\":187:199   */\n  revert\n    /* \"#utility.yul\":334:411   */\ntag_12:\n    /* \"#utility.yul\":371:378   */\n  0x00\n    /* \"#utility.yul\":400:405   */\n  dup2\n    /* \"#utility.yul\":389:405   */\n  swap1\n  pop\n    /* \"#utility.yul\":334:411   */\n  swap2\n  swap1\n  pop\n  jump\t// out\n    /* \"#utility.yul\":417:539   */\ntag_13:\n    /* \"#utility.yul\":490:514   */\n  tag_21\n    /* \"#utility.yul\":508:513   */\n  dup2\n    /* \"#utility.yul\":490:514   */\n  tag_12\n  jump\t// in\ntag_21:\n    /* \"#utility.yul\":483:488   */\n  dup2\n    /* \"#utility.yul\":480:515   */\n  eq\n    /* \"#utility.yul\":470:533   */\n  tag_22\n  jumpi\n    /* \"#utility.yul\":529:530   */\n  0x00\n    /* \"#utility.yul\":526:527   */\n  dup1\n    /* \"#utility.yul\":519:531   */\n  revert\n    /* \"#utility.yul\":470:533   */\ntag_22:\n    /* \"#utility.yul\":417:539   */\n  pop\n  jump\t// out\n    /* \"#utility.yul\":545:688   */\ntag_14:\n    /* \"#utility.yul\":602:607   */\n  0x00\n    /* \"#utility.yul\":633:639   */\n  dup2\n    /* \"#utility.yul\":627:640   */\n  mload\n    /* \"#utility.yul\":618:640   */\n  swap1\n  pop\n    /* \"#utility.yul\":649:682   */\n  tag_24\n    /* \"#utility.yul\":676:681   */\n  dup2\n    /* \"#utility.yul\":649:682   */\n  tag_13\n  jump\t// in\ntag_24:\n    /* \"#utility.yul\":545:688   */\n  swap3\n  swap2\n  pop\n  pop\n  jump\t// out\n    /* \"#utility.yul\":694:1201   */\ntag_3:\n    /* \"#utility.yul\":773:779   */\n  0x00\n    /* \"#utility.yul\":781:787   */\n  dup1\n    /* \"#utility.yul\":830:832   */\n  0x40\n    /* \"#utility.yul\":818:827   */\n  dup4\n    /* \"#utility.yul\":809:816   */\n  dup6\n    /* \"#utility.yul\":805:828   */\n  sub\n    /* \"#utility.yul\":801:833   */\n  slt\n    /* \"#utility.yul\":798:917   */\n  iszero\n  tag_26\n  jumpi\n    /* \"#utility.yul\":836:915   */\n  tag_27\n  tag_10\n  jump\t// in\ntag_27:\n    /* \"#utility.yul\":798:917   */\ntag_26:\n    /* \"#utility.yul\":956:957   */\n  0x00\n    /* \"#utility.yul\":981:1045   */\n  tag_28\n    /* \"#utility.yul\":1037:1044   */\n  dup6\n    /* \"#utility.yul\":1028:1034   */\n  dup3\n    /* \"#utility.yul\":1017:1026   */\n  dup7\n    /* \"#utility.yul\":1013:1035   */\n  add\n    /* \"#utility.yul\":981:1045   */\n  tag_14\n  jump\t// in\ntag_28:\n    /* \"#utility.yul\":971:1045   */\n  swap3\n  pop\n    /* \"#utility.yul\":927:1055   */\n  pop\n    /* \"#utility.yul\":1094:1096   */\n  0x20\n    /* \"#utility.yul\":1120:1184   */\n  tag_29\n    /* \"#utility.yul\":1176:1183   */\n  dup6\n    /* \"#utility.yul\":1167:1173   */\n  dup3\n    /* \"#utility.yul\":1156:1165   */\n  dup7\n    /* \"#utility.yul\":1152:1174   */\n  add\n    /* \"#utility.yul\":1120:1184   */\n  tag_14\n  jump\t// in\ntag_29:\n    /* \"#utility.yul\":1110:1184   */\n  swap2\n  pop\n    /* \"#utility.yul\":1065:1194   */\n  pop\n    /* \"#utility.yul\":694:1201   */\n  swap3\n  pop\n  swap3\n  swap1\n  pop\n  jump\t// out\n    /* \"contracts/kipu-bank.sol\":162:5287  contract KipuBank {... */\ntag_8:\n  mload(0x80)\n  mload(0xa0)\n  codecopy(0x00, dataOffset(sub_0), dataSize(sub_0))\n  0x00\n  assignImmutable(\"0xbbd48b257be1b8216d144ef9be5734f8d11697959c9e0f7768bec89db74a63a3\")\n  0x00\n  assignImmutable(\"0x215d56ac8bbcf4ec574772ebea743ba30ac9d1c5e1b1ff899e5de1045f5df803\")\n  return(0x00, dataSize(sub_0))\nstop\n\nsub_0: assembly {\n        /* \"contracts/kipu-bank.sol\":162:5287  contract KipuBank {... */\n      mstore(0x40, 0x80)\n      jumpi(tag_1, lt(calldatasize, 0x04))\n      shr(0xe0, calldataload(0x00))\n      dup1\n      0xd0e30db0\n      gt\n      tag_10\n      jumpi\n      dup1\n      0xd0e30db0\n      eq\n      tag_6\n      jumpi\n      dup1\n      0xecbea24d\n      eq\n      tag_7\n      jumpi\n      dup1\n      0xf848d541\n      eq\n      tag_8\n      jumpi\n      dup1\n      0xff50abdc\n      eq\n      tag_9\n      jumpi\n      jump(tag_1)\n    tag_10:\n      dup1\n      0x12065fe0\n      eq\n      tag_2\n      jumpi\n      dup1\n      0x2dfdf0b5\n      eq\n      tag_3\n      jumpi\n      dup1\n      0x2e1a7d4d\n      eq\n      tag_4\n      jumpi\n      dup1\n      0x4cc05a71\n      eq\n      tag_5\n      jumpi\n    tag_1:\n      0x00\n      dup1\n      revert\n        /* \"contracts/kipu-bank.sol\":5016:5124  function getBalance() external view returns (uint256 balance) {... */\n    tag_2:\n      callvalue\n      dup1\n      iszero\n      tag_11\n      jumpi\n      0x00\n      dup1\n      revert\n    tag_11:\n      pop\n      tag_12\n      tag_13\n      jump\t// in\n    tag_12:\n      mload(0x40)\n      tag_14\n      swap2\n      swap1\n      tag_15\n      jump\t// in\n    tag_14:\n      mload(0x40)\n      dup1\n      swap2\n      sub\n      swap1\n      return\n        /* \"contracts/kipu-bank.sol\":2372:2399  uint256 public depositCount */\n    tag_3:\n      callvalue\n      dup1\n      iszero\n      tag_16\n      jumpi\n      0x00\n      dup1\n      revert\n    tag_16:\n      pop\n      tag_17\n      tag_18\n      jump\t// in\n    tag_17:\n      mload(0x40)\n      tag_19\n      swap2\n      swap1\n      tag_15\n      jump\t// in\n    tag_19:\n      mload(0x40)\n      dup1\n      swap2\n      sub\n      swap1\n      return\n        /* \"contracts/kipu-bank.sol\":4251:4892  function withdraw(uint256 amount) external nonZero(amount) {... */\n    tag_4:\n      callvalue\n      dup1\n      iszero\n      tag_20\n      jumpi\n      0x00\n      dup1\n      revert\n    tag_20:\n      pop\n      tag_21\n      0x04\n      dup1\n      calldatasize\n      sub\n      dup2\n      add\n      swap1\n      tag_22\n      swap2\n      swap1\n      tag_23\n      jump\t// in\n    tag_22:\n      tag_24\n      jump\t// in\n    tag_21:\n      stop\n        /* \"contracts/kipu-bank.sol\":2451:2479  uint256 public withdrawCount */\n    tag_5:\n      callvalue\n      dup1\n      iszero\n      tag_25\n      jumpi\n      0x00\n      dup1\n      revert\n    tag_25:\n      pop\n      tag_26\n      tag_27\n      jump\t// in\n    tag_26:\n      mload(0x40)\n      tag_28\n      swap2\n      swap1\n      tag_15\n      jump\t// in\n    tag_28:\n      mload(0x40)\n      dup1\n      swap2\n      sub\n      swap1\n      return\n        /* \"contracts/kipu-bank.sol\":3757:4146  function deposit() external payable nonZero(msg.value) {... */\n    tag_6:\n      tag_29\n      tag_30\n      jump\t// in\n    tag_29:\n      stop\n        /* \"contracts/kipu-bank.sol\":2193:2225  uint256 public immutable bankCap */\n    tag_7:\n      callvalue\n      dup1\n      iszero\n      tag_31\n      jumpi\n      0x00\n      dup1\n      revert\n    tag_31:\n      pop\n      tag_32\n      tag_33\n      jump\t// in\n    tag_32:\n      mload(0x40)\n      tag_34\n      swap2\n      swap1\n      tag_15\n      jump\t// in\n    tag_34:\n      mload(0x40)\n      dup1\n      swap2\n      sub\n      swap1\n      return\n        /* \"contracts/kipu-bank.sol\":2094:2132  uint256 public immutable withdrawLimit */\n    tag_8:\n      callvalue\n      dup1\n      iszero\n      tag_35\n      jumpi\n      0x00\n      dup1\n      revert\n    tag_35:\n      pop\n      tag_36\n      tag_37\n      jump\t// in\n    tag_36:\n      mload(0x40)\n      tag_38\n      swap2\n      swap1\n      tag_15\n      jump\t// in\n    tag_38:\n      mload(0x40)\n      dup1\n      swap2\n      sub\n      swap1\n      return\n        /* \"contracts/kipu-bank.sol\":2288:2317  uint256 public totalDeposited */\n    tag_9:\n      callvalue\n      dup1\n      iszero\n      tag_39\n      jumpi\n      0x00\n      dup1\n      revert\n    tag_39:\n      pop\n      tag_40\n      tag_41\n      jump\t// in\n    tag_40:\n      mload(0x40)\n      tag_42\n      swap2\n      swap1\n      tag_15\n      jump\t// in\n    tag_42:\n      mload(0x40)\n      dup1\n      swap2\n      sub\n      swap1\n      return\n        /* \"contracts/kipu-bank.sol\":5016:5124  function getBalance() external view returns (uint256 balance) {... */\n    tag_13:\n        /* \"contracts/kipu-bank.sol\":5061:5076  uint256 balance */\n      0x00\n        /* \"contracts/kipu-bank.sol\":5096:5104  balances */\n      0x03\n        /* \"contracts/kipu-bank.sol\":5096:5116  balances[msg.sender] */\n      0x00\n        /* \"contracts/kipu-bank.sol\":5105:5115  msg.sender */\n      caller\n        /* \"contracts/kipu-bank.sol\":5096:5116  balances[msg.sender] */\n      0xffffffffffffffffffffffffffffffffffffffff\n      and\n      0xffffffffffffffffffffffffffffffffffffffff\n      and\n      dup2\n      mstore\n      0x20\n      add\n      swap1\n      dup2\n      mstore\n      0x20\n      add\n      0x00\n      keccak256\n      sload\n        /* \"contracts/kipu-bank.sol\":5089:5116  return balances[msg.sender] */\n      swap1\n      pop\n        /* \"contracts/kipu-bank.sol\":5016:5124  function getBalance() external view returns (uint256 balance) {... */\n      swap1\n      jump\t// out\n        /* \"contracts/kipu-bank.sol\":2372:2399  uint256 public depositCount */\n    tag_18:\n      sload(0x01)\n      dup2\n      jump\t// out\n        /* \"contracts/kipu-bank.sol\":4251:4892  function withdraw(uint256 amount) external nonZero(amount) {... */\n    tag_24:\n        /* \"contracts/kipu-bank.sol\":4302:4308  amount */\n      dup1\n        /* \"contracts/kipu-bank.sol\":3470:3471  0 */\n      0x00\n        /* \"contracts/kipu-bank.sol\":3460:3466  amount */\n      dup2\n        /* \"contracts/kipu-bank.sol\":3460:3471  amount == 0 */\n      sub\n        /* \"contracts/kipu-bank.sol\":3456:3492  if (amount == 0) revert ZeroAmount() */\n      tag_45\n      jumpi\n        /* \"contracts/kipu-bank.sol\":3480:3492  ZeroAmount() */\n      mload(0x40)\n      0x1f2a200500000000000000000000000000000000000000000000000000000000\n      dup2\n      mstore\n      0x04\n      add\n      mload(0x40)\n      dup1\n      swap2\n      sub\n      swap1\n      revert\n        /* \"contracts/kipu-bank.sol\":3456:3492  if (amount == 0) revert ZeroAmount() */\n    tag_45:\n        /* \"contracts/kipu-bank.sol\":4334:4347  withdrawLimit */\n      immutable(\"0x215d56ac8bbcf4ec574772ebea743ba30ac9d1c5e1b1ff899e5de1045f5df803\")\n        /* \"contracts/kipu-bank.sol\":4325:4331  amount */\n      dup3\n        /* \"contracts/kipu-bank.sol\":4325:4347  amount > withdrawLimit */\n      gt\n        /* \"contracts/kipu-bank.sol\":4321:4400  if (amount > withdrawLimit) revert WithdrawLimitExceeded(amount, withdrawLimit) */\n      iszero\n      tag_47\n      jumpi\n        /* \"contracts/kipu-bank.sol\":4378:4384  amount */\n      dup2\n        /* \"contracts/kipu-bank.sol\":4386:4399  withdrawLimit */\n      immutable(\"0x215d56ac8bbcf4ec574772ebea743ba30ac9d1c5e1b1ff899e5de1045f5df803\")\n        /* \"contracts/kipu-bank.sol\":4356:4400  WithdrawLimitExceeded(amount, withdrawLimit) */\n      mload(0x40)\n      0x016d0ef100000000000000000000000000000000000000000000000000000000\n      dup2\n      mstore\n      0x04\n      add\n      tag_48\n      swap3\n      swap2\n      swap1\n      tag_49\n      jump\t// in\n    tag_48:\n      mload(0x40)\n      dup1\n      swap2\n      sub\n      swap1\n      revert\n        /* \"contracts/kipu-bank.sol\":4321:4400  if (amount > withdrawLimit) revert WithdrawLimitExceeded(amount, withdrawLimit) */\n    tag_47:\n        /* \"contracts/kipu-bank.sol\":4413:4424  uint256 bal */\n      0x00\n        /* \"contracts/kipu-bank.sol\":4427:4435  balances */\n      0x03\n        /* \"contracts/kipu-bank.sol\":4427:4447  balances[msg.sender] */\n      0x00\n        /* \"contracts/kipu-bank.sol\":4436:4446  msg.sender */\n      caller\n        /* \"contracts/kipu-bank.sol\":4427:4447  balances[msg.sender] */\n      0xffffffffffffffffffffffffffffffffffffffff\n      and\n      0xffffffffffffffffffffffffffffffffffffffff\n      and\n      dup2\n      mstore\n      0x20\n      add\n      swap1\n      dup2\n      mstore\n      0x20\n      add\n      0x00\n      keccak256\n      sload\n        /* \"contracts/kipu-bank.sol\":4413:4447  uint256 bal = balances[msg.sender] */\n      swap1\n      pop\n        /* \"contracts/kipu-bank.sol\":4468:4474  amount */\n      dup3\n        /* \"contracts/kipu-bank.sol\":4462:4465  bal */\n      dup2\n        /* \"contracts/kipu-bank.sol\":4462:4474  bal < amount */\n      lt\n        /* \"contracts/kipu-bank.sol\":4458:4515  if (bal < amount) revert InsufficientBalance(bal, amount) */\n      iszero\n      tag_50\n      jumpi\n        /* \"contracts/kipu-bank.sol\":4503:4506  bal */\n      dup1\n        /* \"contracts/kipu-bank.sol\":4508:4514  amount */\n      dup4\n        /* \"contracts/kipu-bank.sol\":4483:4515  InsufficientBalance(bal, amount) */\n      mload(0x40)\n      0xcf47918100000000000000000000000000000000000000000000000000000000\n      dup2\n      mstore\n      0x04\n      add\n      tag_51\n      swap3\n      swap2\n      swap1\n      tag_49\n      jump\t// in\n    tag_51:\n      mload(0x40)\n      dup1\n      swap2\n      sub\n      swap1\n      revert\n        /* \"contracts/kipu-bank.sol\":4458:4515  if (bal < amount) revert InsufficientBalance(bal, amount) */\n    tag_50:\n        /* \"contracts/kipu-bank.sol\":4577:4583  amount */\n      dup3\n        /* \"contracts/kipu-bank.sol\":4571:4574  bal */\n      dup2\n        /* \"contracts/kipu-bank.sol\":4571:4583  bal - amount */\n      tag_52\n      swap2\n      swap1\n      tag_53\n      jump\t// in\n    tag_52:\n        /* \"contracts/kipu-bank.sol\":4548:4556  balances */\n      0x03\n        /* \"contracts/kipu-bank.sol\":4548:4568  balances[msg.sender] */\n      0x00\n        /* \"contracts/kipu-bank.sol\":4557:4567  msg.sender */\n      caller\n        /* \"contracts/kipu-bank.sol\":4548:4568  balances[msg.sender] */\n      0xffffffffffffffffffffffffffffffffffffffff\n      and\n      0xffffffffffffffffffffffffffffffffffffffff\n      and\n      dup2\n      mstore\n      0x20\n      add\n      swap1\n      dup2\n      mstore\n      0x20\n      add\n      0x00\n      keccak256\n        /* \"contracts/kipu-bank.sol\":4548:4583  balances[msg.sender] = bal - amount */\n      dup2\n      swap1\n      sstore\n      pop\n        /* \"contracts/kipu-bank.sol\":4594:4607  withdrawCount */\n      0x02\n      0x00\n        /* \"contracts/kipu-bank.sol\":4594:4609  withdrawCount++ */\n      dup2\n      sload\n      dup1\n      swap3\n      swap2\n      swap1\n      tag_54\n      swap1\n      tag_55\n      jump\t// in\n    tag_54:\n      swap2\n      swap1\n      pop\n      sstore\n      pop\n        /* \"contracts/kipu-bank.sol\":4638:4644  amount */\n      dup3\n        /* \"contracts/kipu-bank.sol\":4620:4634  totalDeposited */\n      0x00\n      dup1\n        /* \"contracts/kipu-bank.sol\":4620:4644  totalDeposited -= amount */\n      dup3\n      dup3\n      sload\n      tag_56\n      swap2\n      swap1\n      tag_53\n      jump\t// in\n    tag_56:\n      swap3\n      pop\n      pop\n      dup2\n      swap1\n      sstore\n      pop\n        /* \"contracts/kipu-bank.sol\":4723:4730  bool ok */\n      0x00\n        /* \"contracts/kipu-bank.sol\":4736:4746  msg.sender */\n      caller\n        /* \"contracts/kipu-bank.sol\":4736:4751  msg.sender.call */\n      0xffffffffffffffffffffffffffffffffffffffff\n      and\n        /* \"contracts/kipu-bank.sol\":4759:4765  amount */\n      dup5\n        /* \"contracts/kipu-bank.sol\":4736:4770  msg.sender.call{value: amount}(\"\") */\n      mload(0x40)\n      tag_57\n      swap1\n      tag_58\n      jump\t// in\n    tag_57:\n      0x00\n      mload(0x40)\n      dup1\n      dup4\n      sub\n      dup2\n      dup6\n      dup8\n      gas\n      call\n      swap3\n      pop\n      pop\n      pop\n      returndatasize\n      dup1\n      0x00\n      dup2\n      eq\n      tag_61\n      jumpi\n      mload(0x40)\n      swap2\n      pop\n      and(add(returndatasize, 0x3f), not(0x1f))\n      dup3\n      add\n      0x40\n      mstore\n      returndatasize\n      dup3\n      mstore\n      returndatasize\n      0x00\n      0x20\n      dup5\n      add\n      returndatacopy\n      jump(tag_60)\n    tag_61:\n      0x60\n      swap2\n      pop\n    tag_60:\n      pop\n        /* \"contracts/kipu-bank.sol\":4722:4770  (bool ok, ) = msg.sender.call{value: amount}(\"\") */\n      pop\n      swap1\n      pop\n        /* \"contracts/kipu-bank.sol\":4786:4788  ok */\n      dup1\n        /* \"contracts/kipu-bank.sol\":4781:4816  if (!ok) revert EthTransferFailed() */\n      tag_62\n      jumpi\n        /* \"contracts/kipu-bank.sol\":4797:4816  EthTransferFailed() */\n      mload(0x40)\n      0x6d963f8800000000000000000000000000000000000000000000000000000000\n      dup2\n      mstore\n      0x04\n      add\n      mload(0x40)\n      dup1\n      swap2\n      sub\n      swap1\n      revert\n        /* \"contracts/kipu-bank.sol\":4781:4816  if (!ok) revert EthTransferFailed() */\n    tag_62:\n        /* \"contracts/kipu-bank.sol\":4834:4884  Withdraw(msg.sender, amount, balances[msg.sender]) */\n      0xf279e6a1f5e320cca91135676d9cb6e44ca8a08c0b88342bcdb1144f6511b568\n        /* \"contracts/kipu-bank.sol\":4843:4853  msg.sender */\n      caller\n        /* \"contracts/kipu-bank.sol\":4855:4861  amount */\n      dup6\n        /* \"contracts/kipu-bank.sol\":4863:4871  balances */\n      0x03\n        /* \"contracts/kipu-bank.sol\":4863:4883  balances[msg.sender] */\n      0x00\n        /* \"contracts/kipu-bank.sol\":4872:4882  msg.sender */\n      caller\n        /* \"contracts/kipu-bank.sol\":4863:4883  balances[msg.sender] */\n      0xffffffffffffffffffffffffffffffffffffffff\n      and\n      0xffffffffffffffffffffffffffffffffffffffff\n      and\n      dup2\n      mstore\n      0x20\n      add\n      swap1\n      dup2\n      mstore\n      0x20\n      add\n      0x00\n      keccak256\n      sload\n        /* \"contracts/kipu-bank.sol\":4834:4884  Withdraw(msg.sender, amount, balances[msg.sender]) */\n      mload(0x40)\n      tag_63\n      swap4\n      swap3\n      swap2\n      swap1\n      tag_64\n      jump\t// in\n    tag_63:\n      mload(0x40)\n      dup1\n      swap2\n      sub\n      swap1\n      log1\n        /* \"contracts/kipu-bank.sol\":4310:4892  {... */\n      pop\n      pop\n        /* \"contracts/kipu-bank.sol\":4251:4892  function withdraw(uint256 amount) external nonZero(amount) {... */\n      pop\n      pop\n      jump\t// out\n        /* \"contracts/kipu-bank.sol\":2451:2479  uint256 public withdrawCount */\n    tag_27:\n      sload(0x02)\n      dup2\n      jump\t// out\n        /* \"contracts/kipu-bank.sol\":3757:4146  function deposit() external payable nonZero(msg.value) {... */\n    tag_30:\n        /* \"contracts/kipu-bank.sol\":3801:3810  msg.value */\n      callvalue\n        /* \"contracts/kipu-bank.sol\":3470:3471  0 */\n      0x00\n        /* \"contracts/kipu-bank.sol\":3460:3466  amount */\n      dup2\n        /* \"contracts/kipu-bank.sol\":3460:3471  amount == 0 */\n      sub\n        /* \"contracts/kipu-bank.sol\":3456:3492  if (amount == 0) revert ZeroAmount() */\n      tag_66\n      jumpi\n        /* \"contracts/kipu-bank.sol\":3480:3492  ZeroAmount() */\n      mload(0x40)\n      0x1f2a200500000000000000000000000000000000000000000000000000000000\n      dup2\n      mstore\n      0x04\n      add\n      mload(0x40)\n      dup1\n      swap2\n      sub\n      swap1\n      revert\n        /* \"contracts/kipu-bank.sol\":3456:3492  if (amount == 0) revert ZeroAmount() */\n    tag_66:\n        /* \"contracts/kipu-bank.sol\":3823:3840  uint256 attempted */\n      0x00\n        /* \"contracts/kipu-bank.sol\":3860:3869  msg.value */\n      callvalue\n        /* \"contracts/kipu-bank.sol\":3843:3857  totalDeposited */\n      sload(0x00)\n        /* \"contracts/kipu-bank.sol\":3843:3869  totalDeposited + msg.value */\n      tag_68\n      swap2\n      swap1\n      tag_69\n      jump\t// in\n    tag_68:\n        /* \"contracts/kipu-bank.sol\":3823:3869  uint256 attempted = totalDeposited + msg.value */\n      swap1\n      pop\n        /* \"contracts/kipu-bank.sol\":3896:3903  bankCap */\n      immutable(\"0xbbd48b257be1b8216d144ef9be5734f8d11697959c9e0f7768bec89db74a63a3\")\n        /* \"contracts/kipu-bank.sol\":3884:3893  attempted */\n      dup2\n        /* \"contracts/kipu-bank.sol\":3884:3903  attempted > bankCap */\n      gt\n        /* \"contracts/kipu-bank.sol\":3880:3950  if (attempted > bankCap) revert DepositCapExceeded(attempted, bankCap) */\n      iszero\n      tag_70\n      jumpi\n        /* \"contracts/kipu-bank.sol\":3931:3940  attempted */\n      dup1\n        /* \"contracts/kipu-bank.sol\":3942:3949  bankCap */\n      immutable(\"0xbbd48b257be1b8216d144ef9be5734f8d11697959c9e0f7768bec89db74a63a3\")\n        /* \"contracts/kipu-bank.sol\":3912:3950  DepositCapExceeded(attempted, bankCap) */\n      mload(0x40)\n      0xb2aafb2500000000000000000000000000000000000000000000000000000000\n      dup2\n      mstore\n      0x04\n      add\n      tag_71\n      swap3\n      swap2\n      swap1\n      tag_49\n      jump\t// in\n    tag_71:\n      mload(0x40)\n      dup1\n      swap2\n      sub\n      swap1\n      revert\n        /* \"contracts/kipu-bank.sol\":3880:3950  if (attempted > bankCap) revert DepositCapExceeded(attempted, bankCap) */\n    tag_70:\n        /* \"contracts/kipu-bank.sol\":3987:3996  msg.value */\n      callvalue\n        /* \"contracts/kipu-bank.sol\":3963:3971  balances */\n      0x03\n        /* \"contracts/kipu-bank.sol\":3963:3983  balances[msg.sender] */\n      0x00\n        /* \"contracts/kipu-bank.sol\":3972:3982  msg.sender */\n      caller\n        /* \"contracts/kipu-bank.sol\":3963:3983  balances[msg.sender] */\n      0xffffffffffffffffffffffffffffffffffffffff\n      and\n      0xffffffffffffffffffffffffffffffffffffffff\n      and\n      dup2\n      mstore\n      0x20\n      add\n      swap1\n      dup2\n      mstore\n      0x20\n      add\n      0x00\n      keccak256\n      0x00\n        /* \"contracts/kipu-bank.sol\":3963:3996  balances[msg.sender] += msg.value */\n      dup3\n      dup3\n      sload\n      tag_72\n      swap2\n      swap1\n      tag_69\n      jump\t// in\n    tag_72:\n      swap3\n      pop\n      pop\n      dup2\n      swap1\n      sstore\n      pop\n        /* \"contracts/kipu-bank.sol\":4024:4033  attempted */\n      dup1\n        /* \"contracts/kipu-bank.sol\":4007:4021  totalDeposited */\n      0x00\n        /* \"contracts/kipu-bank.sol\":4007:4033  totalDeposited = attempted */\n      dup2\n      swap1\n      sstore\n      pop\n        /* \"contracts/kipu-bank.sol\":4044:4056  depositCount */\n      0x01\n      0x00\n        /* \"contracts/kipu-bank.sol\":4044:4058  depositCount++ */\n      dup2\n      sload\n      dup1\n      swap3\n      swap2\n      swap1\n      tag_73\n      swap1\n      tag_55\n      jump\t// in\n    tag_73:\n      swap2\n      swap1\n      pop\n      sstore\n      pop\n        /* \"contracts/kipu-bank.sol\":4086:4138  Deposit(msg.sender, msg.value, balances[msg.sender]) */\n      0x90890809c654f11d6e72a28fa60149770a0d11ec6c92319d6ceb2bb0a4ea1a15\n        /* \"contracts/kipu-bank.sol\":4094:4104  msg.sender */\n      caller\n        /* \"contracts/kipu-bank.sol\":4106:4115  msg.value */\n      callvalue\n        /* \"contracts/kipu-bank.sol\":4117:4125  balances */\n      0x03\n        /* \"contracts/kipu-bank.sol\":4117:4137  balances[msg.sender] */\n      0x00\n        /* \"contracts/kipu-bank.sol\":4126:4136  msg.sender */\n      caller\n        /* \"contracts/kipu-bank.sol\":4117:4137  balances[msg.sender] */\n      0xffffffffffffffffffffffffffffffffffffffff\n      and\n      0xffffffffffffffffffffffffffffffffffffffff\n      and\n      dup2\n      mstore\n      0x20\n      add\n      swap1\n      dup2\n      mstore\n      0x20\n      add\n      0x00\n      keccak256\n      sload\n        /* \"contracts/kipu-bank.sol\":4086:4138  Deposit(msg.sender, msg.value, balances[msg.sender]) */\n      mload(0x40)\n      tag_74\n      swap4\n      swap3\n      swap2\n      swap1\n      tag_64\n      jump\t// in\n    tag_74:\n      mload(0x40)\n      dup1\n      swap2\n      sub\n      swap1\n      log1\n        /* \"contracts/kipu-bank.sol\":3812:4146  {... */\n      pop\n        /* \"contracts/kipu-bank.sol\":3757:4146  function deposit() external payable nonZero(msg.value) {... */\n      pop\n      jump\t// out\n        /* \"contracts/kipu-bank.sol\":2193:2225  uint256 public immutable bankCap */\n    tag_33:\n      immutable(\"0xbbd48b257be1b8216d144ef9be5734f8d11697959c9e0f7768bec89db74a63a3\")\n      dup2\n      jump\t// out\n        /* \"contracts/kipu-bank.sol\":2094:2132  uint256 public immutable withdrawLimit */\n    tag_37:\n      immutable(\"0x215d56ac8bbcf4ec574772ebea743ba30ac9d1c5e1b1ff899e5de1045f5df803\")\n      dup2\n      jump\t// out\n        /* \"contracts/kipu-bank.sol\":2288:2317  uint256 public totalDeposited */\n    tag_41:\n      sload(0x00)\n      dup2\n      jump\t// out\n        /* \"#utility.yul\":7:84   */\n    tag_75:\n        /* \"#utility.yul\":44:51   */\n      0x00\n        /* \"#utility.yul\":73:78   */\n      dup2\n        /* \"#utility.yul\":62:78   */\n      swap1\n      pop\n        /* \"#utility.yul\":7:84   */\n      swap2\n      swap1\n      pop\n      jump\t// out\n        /* \"#utility.yul\":90:208   */\n    tag_76:\n        /* \"#utility.yul\":177:201   */\n      tag_92\n        /* \"#utility.yul\":195:200   */\n      dup2\n        /* \"#utility.yul\":177:201   */\n      tag_75\n      jump\t// in\n    tag_92:\n        /* \"#utility.yul\":172:175   */\n      dup3\n        /* \"#utility.yul\":165:202   */\n      mstore\n        /* \"#utility.yul\":90:208   */\n      pop\n      pop\n      jump\t// out\n        /* \"#utility.yul\":214:436   */\n    tag_15:\n        /* \"#utility.yul\":307:311   */\n      0x00\n        /* \"#utility.yul\":345:347   */\n      0x20\n        /* \"#utility.yul\":334:343   */\n      dup3\n        /* \"#utility.yul\":330:348   */\n      add\n        /* \"#utility.yul\":322:348   */\n      swap1\n      pop\n        /* \"#utility.yul\":358:429   */\n      tag_94\n        /* \"#utility.yul\":426:427   */\n      0x00\n        /* \"#utility.yul\":415:424   */\n      dup4\n        /* \"#utility.yul\":411:428   */\n      add\n        /* \"#utility.yul\":402:408   */\n      dup5\n        /* \"#utility.yul\":358:429   */\n      tag_76\n      jump\t// in\n    tag_94:\n        /* \"#utility.yul\":214:436   */\n      swap3\n      swap2\n      pop\n      pop\n      jump\t// out\n        /* \"#utility.yul\":523:640   */\n    tag_78:\n        /* \"#utility.yul\":632:633   */\n      0x00\n        /* \"#utility.yul\":629:630   */\n      dup1\n        /* \"#utility.yul\":622:634   */\n      revert\n        /* \"#utility.yul\":769:891   */\n    tag_80:\n        /* \"#utility.yul\":842:866   */\n      tag_99\n        /* \"#utility.yul\":860:865   */\n      dup2\n        /* \"#utility.yul\":842:866   */\n      tag_75\n      jump\t// in\n    tag_99:\n        /* \"#utility.yul\":835:840   */\n      dup2\n        /* \"#utility.yul\":832:867   */\n      eq\n        /* \"#utility.yul\":822:885   */\n      tag_100\n      jumpi\n        /* \"#utility.yul\":881:882   */\n      0x00\n        /* \"#utility.yul\":878:879   */\n      dup1\n        /* \"#utility.yul\":871:883   */\n      revert\n        /* \"#utility.yul\":822:885   */\n    tag_100:\n        /* \"#utility.yul\":769:891   */\n      pop\n      jump\t// out\n        /* \"#utility.yul\":897:1036   */\n    tag_81:\n        /* \"#utility.yul\":943:948   */\n      0x00\n        /* \"#utility.yul\":981:987   */\n      dup2\n        /* \"#utility.yul\":968:988   */\n      calldataload\n        /* \"#utility.yul\":959:988   */\n      swap1\n      pop\n        /* \"#utility.yul\":997:1030   */\n      tag_102\n        /* \"#utility.yul\":1024:1029   */\n      dup2\n        /* \"#utility.yul\":997:1030   */\n      tag_80\n      jump\t// in\n    tag_102:\n        /* \"#utility.yul\":897:1036   */\n      swap3\n      swap2\n      pop\n      pop\n      jump\t// out\n        /* \"#utility.yul\":1042:1371   */\n    tag_23:\n        /* \"#utility.yul\":1101:1107   */\n      0x00\n        /* \"#utility.yul\":1150:1152   */\n      0x20\n        /* \"#utility.yul\":1138:1147   */\n      dup3\n        /* \"#utility.yul\":1129:1136   */\n      dup5\n        /* \"#utility.yul\":1125:1148   */\n      sub\n        /* \"#utility.yul\":1121:1153   */\n      slt\n        /* \"#utility.yul\":1118:1237   */\n      iszero\n      tag_104\n      jumpi\n        /* \"#utility.yul\":1156:1235   */\n      tag_105\n      tag_78\n      jump\t// in\n    tag_105:\n        /* \"#utility.yul\":1118:1237   */\n    tag_104:\n        /* \"#utility.yul\":1276:1277   */\n      0x00\n        /* \"#utility.yul\":1301:1354   */\n      tag_106\n        /* \"#utility.yul\":1346:1353   */\n      dup5\n        /* \"#utility.yul\":1337:1343   */\n      dup3\n        /* \"#utility.yul\":1326:1335   */\n      dup6\n        /* \"#utility.yul\":1322:1344   */\n      add\n        /* \"#utility.yul\":1301:1354   */\n      tag_81\n      jump\t// in\n    tag_106:\n        /* \"#utility.yul\":1291:1354   */\n      swap2\n      pop\n        /* \"#utility.yul\":1247:1364   */\n      pop\n        /* \"#utility.yul\":1042:1371   */\n      swap3\n      swap2\n      pop\n      pop\n      jump\t// out\n        /* \"#utility.yul\":1377:1709   */\n    tag_49:\n        /* \"#utility.yul\":1498:1502   */\n      0x00\n        /* \"#utility.yul\":1536:1538   */\n      0x40\n        /* \"#utility.yul\":1525:1534   */\n      dup3\n        /* \"#utility.yul\":1521:1539   */\n      add\n        /* \"#utility.yul\":1513:1539   */\n      swap1\n      pop\n        /* \"#utility.yul\":1549:1620   */\n      tag_108\n        /* \"#utility.yul\":1617:1618   */\n      0x00\n        /* \"#utility.yul\":1606:1615   */\n      dup4\n        /* \"#utility.yul\":1602:1619   */\n      add\n        /* \"#utility.yul\":1593:1599   */\n      dup6\n        /* \"#utility.yul\":1549:1620   */\n      tag_76\n      jump\t// in\n    tag_108:\n        /* \"#utility.yul\":1630:1702   */\n      tag_109\n        /* \"#utility.yul\":1698:1700   */\n      0x20\n        /* \"#utility.yul\":1687:1696   */\n      dup4\n        /* \"#utility.yul\":1683:1701   */\n      add\n        /* \"#utility.yul\":1674:1680   */\n      dup5\n        /* \"#utility.yul\":1630:1702   */\n      tag_76\n      jump\t// in\n    tag_109:\n        /* \"#utility.yul\":1377:1709   */\n      swap4\n      swap3\n      pop\n      pop\n      pop\n      jump\t// out\n        /* \"#utility.yul\":1715:1895   */\n    tag_82:\n        /* \"#utility.yul\":1763:1840   */\n      0x4e487b7100000000000000000000000000000000000000000000000000000000\n        /* \"#utility.yul\":1760:1761   */\n      0x00\n        /* \"#utility.yul\":1753:1841   */\n      mstore\n        /* \"#utility.yul\":1860:1864   */\n      0x11\n        /* \"#utility.yul\":1857:1858   */\n      0x04\n        /* \"#utility.yul\":1850:1865   */\n      mstore\n        /* \"#utility.yul\":1884:1888   */\n      0x24\n        /* \"#utility.yul\":1881:1882   */\n      0x00\n        /* \"#utility.yul\":1874:1889   */\n      revert\n        /* \"#utility.yul\":1901:2095   */\n    tag_53:\n        /* \"#utility.yul\":1941:1945   */\n      0x00\n        /* \"#utility.yul\":1961:1981   */\n      tag_112\n        /* \"#utility.yul\":1979:1980   */\n      dup3\n        /* \"#utility.yul\":1961:1981   */\n      tag_75\n      jump\t// in\n    tag_112:\n        /* \"#utility.yul\":1956:1981   */\n      swap2\n      pop\n        /* \"#utility.yul\":1995:2015   */\n      tag_113\n        /* \"#utility.yul\":2013:2014   */\n      dup4\n        /* \"#utility.yul\":1995:2015   */\n      tag_75\n      jump\t// in\n    tag_113:\n        /* \"#utility.yul\":1990:2015   */\n      swap3\n      pop\n        /* \"#utility.yul\":2039:2040   */\n      dup3\n        /* \"#utility.yul\":2036:2037   */\n      dup3\n        /* \"#utility.yul\":2032:2041   */\n      sub\n        /* \"#utility.yul\":2024:2041   */\n      swap1\n      pop\n        /* \"#utility.yul\":2063:2064   */\n      dup2\n        /* \"#utility.yul\":2057:2061   */\n      dup2\n        /* \"#utility.yul\":2054:2065   */\n      gt\n        /* \"#utility.yul\":2051:2088   */\n      iszero\n      tag_114\n      jumpi\n        /* \"#utility.yul\":2068:2086   */\n      tag_115\n      tag_82\n      jump\t// in\n    tag_115:\n        /* \"#utility.yul\":2051:2088   */\n    tag_114:\n        /* \"#utility.yul\":1901:2095   */\n      swap3\n      swap2\n      pop\n      pop\n      jump\t// out\n        /* \"#utility.yul\":2101:2334   */\n    tag_55:\n        /* \"#utility.yul\":2140:2143   */\n      0x00\n        /* \"#utility.yul\":2163:2187   */\n      tag_117\n        /* \"#utility.yul\":2181:2186   */\n      dup3\n        /* \"#utility.yul\":2163:2187   */\n      tag_75\n      jump\t// in\n    tag_117:\n        /* \"#utility.yul\":2154:2187   */\n      swap2\n      pop\n        /* \"#utility.yul\":2209:2275   */\n      0xffffffffffffffffffffffffffffffffffffffffffffffffffffffffffffffff\n        /* \"#utility.yul\":2202:2207   */\n      dup3\n        /* \"#utility.yul\":2199:2276   */\n      sub\n        /* \"#utility.yul\":2196:2299   */\n      tag_118\n      jumpi\n        /* \"#utility.yul\":2279:2297   */\n      tag_119\n      tag_82\n      jump\t// in\n    tag_119:\n        /* \"#utility.yul\":2196:2299   */\n    tag_118:\n        /* \"#utility.yul\":2326:2327   */\n      0x01\n        /* \"#utility.yul\":2319:2324   */\n      dup3\n        /* \"#utility.yul\":2315:2328   */\n      add\n        /* \"#utility.yul\":2308:2328   */\n      swap1\n      pop\n        /* \"#utility.yul\":2101:2334   */\n      swap2\n      swap1\n      pop\n      jump\t// out\n        /* \"#utility.yul\":2340:2487   */\n    tag_83:\n        /* \"#utility.yul\":2441:2452   */\n      0x00\n        /* \"#utility.yul\":2478:2481   */\n      dup2\n        /* \"#utility.yul\":2463:2481   */\n      swap1\n      pop\n        /* \"#utility.yul\":2340:2487   */\n      swap3\n      swap2\n      pop\n      pop\n      jump\t// out\n        /* \"#utility.yul\":2493:2607   */\n    tag_84:\n      pop\n      jump\t// out\n        /* \"#utility.yul\":2613:3011   */\n    tag_85:\n        /* \"#utility.yul\":2772:2775   */\n      0x00\n        /* \"#utility.yul\":2793:2876   */\n      tag_123\n        /* \"#utility.yul\":2874:2875   */\n      0x00\n        /* \"#utility.yul\":2869:2872   */\n      dup4\n        /* \"#utility.yul\":2793:2876   */\n      tag_83\n      jump\t// in\n    tag_123:\n        /* \"#utility.yul\":2786:2876   */\n      swap2\n      pop\n        /* \"#utility.yul\":2885:2978   */\n      tag_124\n        /* \"#utility.yul\":2974:2977   */\n      dup3\n        /* \"#utility.yul\":2885:2978   */\n      tag_84\n      jump\t// in\n    tag_124:\n        /* \"#utility.yul\":3003:3004   */\n      0x00\n        /* \"#utility.yul\":2998:3001   */\n      dup3\n        /* \"#utility.yul\":2994:3005   */\n      add\n        /* \"#utility.yul\":2987:3005   */\n      swap1\n      pop\n        /* \"#utility.yul\":2613:3011   */\n      swap2\n      swap1\n      pop\n      jump\t// out\n        /* \"#utility.yul\":3017:3396   */\n    tag_58:\n        /* \"#utility.yul\":3201:3204   */\n      0x00\n        /* \"#utility.yul\":3223:3370   */\n      tag_126\n        /* \"#utility.yul\":3366:3369   */\n      dup3\n        /* \"#utility.yul\":3223:3370   */\n      tag_85\n      jump\t// in\n    tag_126:\n        /* \"#utility.yul\":3216:3370   */\n      swap2\n      pop\n        /* \"#utility.yul\":3387:3390   */\n      dup2\n        /* \"#utility.yul\":3380:3390   */\n      swap1\n      pop\n        /* \"#utility.yul\":3017:3396   */\n      swap2\n      swap1\n      pop\n      jump\t// out\n        /* \"#utility.yul\":3402:3528   */\n    tag_86:\n        /* \"#utility.yul\":3439:3446   */\n      0x00\n        /* \"#utility.yul\":3479:3521   */\n      0xffffffffffffffffffffffffffffffffffffffff\n        /* \"#utility.yul\":3472:3477   */\n      dup3\n        /* \"#utility.yul\":3468:3522   */\n      and\n        /* \"#utility.yul\":3457:3522   */\n      swap1\n      pop\n        /* \"#utility.yul\":3402:3528   */\n      swap2\n      swap1\n      pop\n      jump\t// out\n        /* \"#utility.yul\":3534:3630   */\n    tag_87:\n        /* \"#utility.yul\":3571:3578   */\n      0x00\n        /* \"#utility.yul\":3600:3624   */\n      tag_129\n        /* \"#utility.yul\":3618:3623   */\n      dup3\n        /* \"#utility.yul\":3600:3624   */\n      tag_86\n      jump\t// in\n    tag_129:\n        /* \"#utility.yul\":3589:3624   */\n      swap1\n      pop\n        /* \"#utility.yul\":3534:3630   */\n      swap2\n      swap1\n      pop\n      jump\t// out\n        /* \"#utility.yul\":3636:3754   */\n    tag_88:\n        /* \"#utility.yul\":3723:3747   */\n      tag_131\n        /* \"#utility.yul\":3741:3746   */\n      dup2\n        /* \"#utility.yul\":3723:3747   */\n      tag_87\n      jump\t// in\n    tag_131:\n        /* \"#utility.yul\":3718:3721   */\n      dup3\n        /* \"#utility.yul\":3711:3748   */\n      mstore\n        /* \"#utility.yul\":3636:3754   */\n      pop\n      pop\n      jump\t// out\n        /* \"#utility.yul\":3760:4202   */\n    tag_64:\n        /* \"#utility.yul\":3909:3913   */\n      0x00\n        /* \"#utility.yul\":3947:3949   */\n      0x60\n        /* \"#utility.yul\":3936:3945   */\n      dup3\n        /* \"#utility.yul\":3932:3950   */\n      add\n        /* \"#utility.yul\":3924:3950   */\n      swap1\n      pop\n        /* \"#utility.yul\":3960:4031   */\n      tag_133\n        /* \"#utility.yul\":4028:4029   */\n      0x00\n        /* \"#utility.yul\":4017:4026   */\n      dup4\n        /* \"#utility.yul\":4013:4030   */\n      add\n        /* \"#utility.yul\":4004:4010   */\n      dup7\n        /* \"#utility.yul\":3960:4031   */\n      tag_88\n      jump\t// in\n    tag_133:\n        /* \"#utility.yul\":4041:4113   */\n      tag_134\n        /* \"#utility.yul\":4109:4111   */\n      0x20\n        /* \"#utility.yul\":4098:4107   */\n      dup4\n        /* \"#utility.yul\":4094:4112   */\n      add\n        /* \"#utility.yul\":4085:4091   */\n      dup6\n        /* \"#utility.yul\":4041:4113   */\n      tag_76\n      jump\t// in\n    tag_134:\n        /* \"#utility.yul\":4123:4195   */\n      tag_135\n        /* \"#utility.yul\":4191:4193   */\n      0x40\n        /* \"#utility.yul\":4180:4189   */\n      dup4\n        /* \"#utility.yul\":4176:4194   */\n      add\n        /* \"#utility.yul\":4167:4173   */\n      dup5\n        /* \"#utility.yul\":4123:4195   */\n      tag_76\n      jump\t// in\n    tag_135:\n        /* \"#utility.yul\":3760:4202   */\n      swap5\n      swap4\n      pop\n      pop\n      pop\n      pop\n      jump\t// out\n        /* \"#utility.yul\":4208:4399   */\n    tag_69:\n        /* \"#utility.yul\":4248:4251   */\n      0x00\n        /* \"#utility.yul\":4267:4287   */\n      tag_137\n        /* \"#utility.yul\":4285:4286   */\n      dup3\n        /* \"#utility.yul\":4267:4287   */\n      tag_75\n      jump\t// in\n    tag_137:\n        /* \"#utility.yul\":4262:4287   */\n      swap2\n      pop\n        /* \"#utility.yul\":4301:4321   */\n      tag_138\n        /* \"#utility.yul\":4319:4320   */\n      dup4\n        /* \"#utility.yul\":4301:4321   */\n      tag_75\n      jump\t// in\n    tag_138:\n        /* \"#utility.yul\":4296:4321   */\n      swap3\n      pop\n        /* \"#utility.yul\":4344:4345   */\n      dup3\n        /* \"#utility.yul\":4341:4342   */\n      dup3\n        /* \"#utility.yul\":4337:4346   */\n      add\n        /* \"#utility.yul\":4330:4346   */\n      swap1\n      pop\n        /* \"#utility.yul\":4365:4368   */\n      dup1\n        /* \"#utility.yul\":4362:4363   */\n      dup3\n        /* \"#utility.yul\":4359:4369   */\n      gt\n        /* \"#utility.yul\":4356:4392   */\n      iszero\n      tag_139\n      jumpi\n        /* \"#utility.yul\":4372:4390   */\n      tag_140\n      tag_82\n      jump\t// in\n    tag_140:\n        /* \"#utility.yul\":4356:4392   */\n    tag_139:\n        /* \"#utility.yul\":4208:4399   */\n      swap3\n      swap2\n      pop\n      pop\n      jump\t// out\n\n    auxdata: 0xa2646970667358221220e112617a8bd83b62733c807d52cf0d9af07284eb6ecfcb4a1c6fd8e5d0850cb664736f6c634300081a0033\n}\n",
				"bytecode": {
					"linkReferences": {},
					"object": "60c060405234801561000f575f80fd5b50604051610a9b380380610a9b833981810160405281019061003191906100c3565b5f82148061003e57505f81145b15610075576040517f1f2a200500000000000000000000000000000000000000000000000000000000815260040160405180910390fd5b81608081815250508060a081815250505050610101565b5f80fd5b5f819050919050565b6100a281610090565b81146100ac575f80fd5b50565b5f815190506100bd81610099565b92915050565b5f80604083850312156100d9576100d861008c565b5b5f6100e6858286016100af565b92505060206100f7858286016100af565b9150509250929050565b60805160a05161095d61013e5f395f818161052901528181610552015261069c01525f81816102320152818161025b01526106c0015261095d5ff3fe60806040526004361061007a575f3560e01c8063d0e30db01161004d578063d0e30db014610124578063ecbea24d1461012e578063f848d54114610158578063ff50abdc146101825761007a565b806312065fe01461007e5780632dfdf0b5146100a85780632e1a7d4d146100d25780634cc05a71146100fa575b5f80fd5b348015610089575f80fd5b506100926101ac565b60405161009f91906106ff565b60405180910390f35b3480156100b3575f80fd5b506100bc6101f0565b6040516100c991906106ff565b60405180910390f35b3480156100dd575f80fd5b506100f860048036038101906100f39190610746565b6101f6565b005b348015610105575f80fd5b5061010e6104d7565b60405161011b91906106ff565b60405180910390f35b61012c6104dd565b005b348015610139575f80fd5b5061014261069a565b60405161014f91906106ff565b60405180910390f35b348015610163575f80fd5b5061016c6106be565b60405161017991906106ff565b60405180910390f35b34801561018d575f80fd5b506101966106e2565b6040516101a391906106ff565b60405180910390f35b5f60035f3373ffffffffffffffffffffffffffffffffffffffff1673ffffffffffffffffffffffffffffffffffffffff1681526020019081526020015f2054905090565b60015481565b805f8103610230576040517f1f2a200500000000000000000000000000000000000000000000000000000000815260040160405180910390fd5b7f00000000000000000000000000000000000000000000000000000000000000008211156102b757817f00000000000000000000000000000000000000000000000000000000000000006040517f016d0ef10000000000000000000000000000000000000000000000000000000081526004016102ae929190610771565b60405180910390fd5b5f60035f3373ffffffffffffffffffffffffffffffffffffffff1673ffffffffffffffffffffffffffffffffffffffff1681526020019081526020015f205490508281101561033f5780836040517fcf479181000000000000000000000000000000000000000000000000000000008152600401610336929190610771565b60405180910390fd5b828161034b91906107c5565b60035f3373ffffffffffffffffffffffffffffffffffffffff1673ffffffffffffffffffffffffffffffffffffffff1681526020019081526020015f208190555060025f81548092919061039e906107f8565b9190505550825f808282546103b391906107c5565b925050819055505f3373ffffffffffffffffffffffffffffffffffffffff16846040516103df9061086c565b5f6040518083038185875af1925050503d805f8114610419576040519150601f19603f3d011682016040523d82523d5f602084013e61041e565b606091505b5050905080610459576040517f6d963f8800000000000000000000000000000000000000000000000000000000815260040160405180910390fd5b7ff279e6a1f5e320cca91135676d9cb6e44ca8a08c0b88342bcdb1144f6511b568338560035f3373ffffffffffffffffffffffffffffffffffffffff1673ffffffffffffffffffffffffffffffffffffffff1681526020019081526020015f20546040516104c9939291906108bf565b60405180910390a150505050565b60025481565b345f8103610517576040517f1f2a200500000000000000000000000000000000000000000000000000000000815260040160405180910390fd5b5f345f5461052591906108f4565b90507f00000000000000000000000000000000000000000000000000000000000000008111156105ae57807f00000000000000000000000000000000000000000000000000000000000000006040517fb2aafb250000000000000000000000000000000000000000000000000000000081526004016105a5929190610771565b60405180910390fd5b3460035f3373ffffffffffffffffffffffffffffffffffffffff1673ffffffffffffffffffffffffffffffffffffffff1681526020019081526020015f205f8282546105fa91906108f4565b92505081905550805f8190555060015f815480929190610619906107f8565b91905055507f90890809c654f11d6e72a28fa60149770a0d11ec6c92319d6ceb2bb0a4ea1a15333460035f3373ffffffffffffffffffffffffffffffffffffffff1673ffffffffffffffffffffffffffffffffffffffff1681526020019081526020015f205460405161068e939291906108bf565b60405180910390a15050565b7f000000000000000000000000000000000000000000000000000000000000000081565b7f000000000000000000000000000000000000000000000000000000000000000081565b5f5481565b5f819050919050565b6106f9816106e7565b82525050565b5f6020820190506107125f8301846106f0565b92915050565b5f80fd5b610725816106e7565b811461072f575f80fd5b50565b5f813590506107408161071c565b92915050565b5f6020828403121561075b5761075a610718565b5b5f61076884828501610732565b91505092915050565b5f6040820190506107845f8301856106f0565b61079160208301846106f0565b9392505050565b7f4e487b71000000000000000000000000000000000000000000000000000000005f52601160045260245ffd5b5f6107cf826106e7565b91506107da836106e7565b92508282039050818111156107f2576107f1610798565b5b92915050565b5f610802826106e7565b91507fffffffffffffffffffffffffffffffffffffffffffffffffffffffffffffffff820361083457610833610798565b5b600182019050919050565b5f81905092915050565b50565b5f6108575f8361083f565b915061086282610849565b5f82019050919050565b5f6108768261084c565b9150819050919050565b5f73ffffffffffffffffffffffffffffffffffffffff82169050919050565b5f6108a982610880565b9050919050565b6108b98161089f565b82525050565b5f6060820190506108d25f8301866108b0565b6108df60208301856106f0565b6108ec60408301846106f0565b949350505050565b5f6108fe826106e7565b9150610909836106e7565b925082820190508082111561092157610920610798565b5b9291505056fea2646970667358221220e112617a8bd83b62733c807d52cf0d9af07284eb6ecfcb4a1c6fd8e5d0850cb664736f6c634300081a0033",
					"opcodes": "PUSH1 0xC0 PUSH1 0x40 MSTORE CALLVALUE DUP1 ISZERO PUSH2 0xF JUMPI PUSH0 DUP1 REVERT JUMPDEST POP PUSH1 0x40 MLOAD PUSH2 0xA9B CODESIZE SUB DUP1 PUSH2 0xA9B DUP4 CODECOPY DUP2 DUP2 ADD PUSH1 0x40 MSTORE DUP2 ADD SWAP1 PUSH2 0x31 SWAP2 SWAP1 PUSH2 0xC3 JUMP JUMPDEST PUSH0 DUP3 EQ DUP1 PUSH2 0x3E JUMPI POP PUSH0 DUP2 EQ JUMPDEST ISZERO PUSH2 0x75 JUMPI PUSH1 0x40 MLOAD PUSH32 0x1F2A200500000000000000000000000000000000000000000000000000000000 DUP2 MSTORE PUSH1 0x4 ADD PUSH1 0x40 MLOAD DUP1 SWAP2 SUB SWAP1 REVERT JUMPDEST DUP2 PUSH1 0x80 DUP2 DUP2 MSTORE POP POP DUP1 PUSH1 0xA0 DUP2 DUP2 MSTORE POP POP POP POP PUSH2 0x101 JUMP JUMPDEST PUSH0 DUP1 REVERT JUMPDEST PUSH0 DUP2 SWAP1 POP SWAP2 SWAP1 POP JUMP JUMPDEST PUSH2 0xA2 DUP2 PUSH2 0x90 JUMP JUMPDEST DUP2 EQ PUSH2 0xAC JUMPI PUSH0 DUP1 REVERT JUMPDEST POP JUMP JUMPDEST PUSH0 DUP2 MLOAD SWAP1 POP PUSH2 0xBD DUP2 PUSH2 0x99 JUMP JUMPDEST SWAP3 SWAP2 POP POP JUMP JUMPDEST PUSH0 DUP1 PUSH1 0x40 DUP4 DUP6 SUB SLT ISZERO PUSH2 0xD9 JUMPI PUSH2 0xD8 PUSH2 0x8C JUMP JUMPDEST JUMPDEST PUSH0 PUSH2 0xE6 DUP6 DUP3 DUP7 ADD PUSH2 0xAF JUMP JUMPDEST SWAP3 POP POP PUSH1 0x20 PUSH2 0xF7 DUP6 DUP3 DUP7 ADD PUSH2 0xAF JUMP JUMPDEST SWAP2 POP POP SWAP3 POP SWAP3 SWAP1 POP JUMP JUMPDEST PUSH1 0x80 MLOAD PUSH1 0xA0 MLOAD PUSH2 0x95D PUSH2 0x13E PUSH0 CODECOPY PUSH0 DUP2 DUP2 PUSH2 0x529 ADD MSTORE DUP2 DUP2 PUSH2 0x552 ADD MSTORE PUSH2 0x69C ADD MSTORE PUSH0 DUP2 DUP2 PUSH2 0x232 ADD MSTORE DUP2 DUP2 PUSH2 0x25B ADD MSTORE PUSH2 0x6C0 ADD MSTORE PUSH2 0x95D PUSH0 RETURN INVALID PUSH1 0x80 PUSH1 0x40 MSTORE PUSH1 0x4 CALLDATASIZE LT PUSH2 0x7A JUMPI PUSH0 CALLDATALOAD PUSH1 0xE0 SHR DUP1 PUSH4 0xD0E30DB0 GT PUSH2 0x4D JUMPI DUP1 PUSH4 0xD0E30DB0 EQ PUSH2 0x124 JUMPI DUP1 PUSH4 0xECBEA24D EQ PUSH2 0x12E JUMPI DUP1 PUSH4 0xF848D541 EQ PUSH2 0x158 JUMPI DUP1 PUSH4 0xFF50ABDC EQ PUSH2 0x182 JUMPI PUSH2 0x7A JUMP JUMPDEST DUP1 PUSH4 0x12065FE0 EQ PUSH2 0x7E JUMPI DUP1 PUSH4 0x2DFDF0B5 EQ PUSH2 0xA8 JUMPI DUP1 PUSH4 0x2E1A7D4D EQ PUSH2 0xD2 JUMPI DUP1 PUSH4 0x4CC05A71 EQ PUSH2 0xFA JUMPI JUMPDEST PUSH0 DUP1 REVERT JUMPDEST CALLVALUE DUP1 ISZERO PUSH2 0x89 JUMPI PUSH0 DUP1 REVERT JUMPDEST POP PUSH2 0x92 PUSH2 0x1AC JUMP JUMPDEST PUSH1 0x40 MLOAD PUSH2 0x9F SWAP2 SWAP1 PUSH2 0x6FF JUMP JUMPDEST PUSH1 0x40 MLOAD DUP1 SWAP2 SUB SWAP1 RETURN JUMPDEST CALLVALUE DUP1 ISZERO PUSH2 0xB3 JUMPI PUSH0 DUP1 REVERT JUMPDEST POP PUSH2 0xBC PUSH2 0x1F0 JUMP JUMPDEST PUSH1 0x40 MLOAD PUSH2 0xC9 SWAP2 SWAP1 PUSH2 0x6FF JUMP JUMPDEST PUSH1 0x40 MLOAD DUP1 SWAP2 SUB SWAP1 RETURN JUMPDEST CALLVALUE DUP1 ISZERO PUSH2 0xDD JUMPI PUSH0 DUP1 REVERT JUMPDEST POP PUSH2 0xF8 PUSH1 0x4 DUP1 CALLDATASIZE SUB DUP2 ADD SWAP1 PUSH2 0xF3 SWAP2 SWAP1 PUSH2 0x746 JUMP JUMPDEST PUSH2 0x1F6 JUMP JUMPDEST STOP JUMPDEST CALLVALUE DUP1 ISZERO PUSH2 0x105 JUMPI PUSH0 DUP1 REVERT JUMPDEST POP PUSH2 0x10E PUSH2 0x4D7 JUMP JUMPDEST PUSH1 0x40 MLOAD PUSH2 0x11B SWAP2 SWAP1 PUSH2 0x6FF JUMP JUMPDEST PUSH1 0x40 MLOAD DUP1 SWAP2 SUB SWAP1 RETURN JUMPDEST PUSH2 0x12C PUSH2 0x4DD JUMP JUMPDEST STOP JUMPDEST CALLVALUE DUP1 ISZERO PUSH2 0x139 JUMPI PUSH0 DUP1 REVERT JUMPDEST POP PUSH2 0x142 PUSH2 0x69A JUMP JUMPDEST PUSH1 0x40 MLOAD PUSH2 0x14F SWAP2 SWAP1 PUSH2 0x6FF JUMP JUMPDEST PUSH1 0x40 MLOAD DUP1 SWAP2 SUB SWAP1 RETURN JUMPDEST CALLVALUE DUP1 ISZERO PUSH2 0x163 JUMPI PUSH0 DUP1 REVERT JUMPDEST POP PUSH2 0x16C PUSH2 0x6BE JUMP JUMPDEST PUSH1 0x40 MLOAD PUSH2 0x179 SWAP2 SWAP1 PUSH2 0x6FF JUMP JUMPDEST PUSH1 0x40 MLOAD DUP1 SWAP2 SUB SWAP1 RETURN JUMPDEST CALLVALUE DUP1 ISZERO PUSH2 0x18D JUMPI PUSH0 DUP1 REVERT JUMPDEST POP PUSH2 0x196 PUSH2 0x6E2 JUMP JUMPDEST PUSH1 0x40 MLOAD PUSH2 0x1A3 SWAP2 SWAP1 PUSH2 0x6FF JUMP JUMPDEST PUSH1 0x40 MLOAD DUP1 SWAP2 SUB SWAP1 RETURN JUMPDEST PUSH0 PUSH1 0x3 PUSH0 CALLER PUSH20 0xFFFFFFFFFFFFFFFFFFFFFFFFFFFFFFFFFFFFFFFF AND PUSH20 0xFFFFFFFFFFFFFFFFFFFFFFFFFFFFFFFFFFFFFFFF AND DUP2 MSTORE PUSH1 0x20 ADD SWAP1 DUP2 MSTORE PUSH1 0x20 ADD PUSH0 KECCAK256 SLOAD SWAP1 POP SWAP1 JUMP JUMPDEST PUSH1 0x1 SLOAD DUP2 JUMP JUMPDEST DUP1 PUSH0 DUP2 SUB PUSH2 0x230 JUMPI PUSH1 0x40 MLOAD PUSH32 0x1F2A200500000000000000000000000000000000000000000000000000000000 DUP2 MSTORE PUSH1 0x4 ADD PUSH1 0x40 MLOAD DUP1 SWAP2 SUB SWAP1 REVERT JUMPDEST PUSH32 0x0 DUP3 GT ISZERO PUSH2 0x2B7 JUMPI DUP2 PUSH32 0x0 PUSH1 0x40 MLOAD PUSH32 0x16D0EF100000000000000000000000000000000000000000000000000000000 DUP2 MSTORE PUSH1 0x4 ADD PUSH2 0x2AE SWAP3 SWAP2 SWAP1 PUSH2 0x771 JUMP JUMPDEST PUSH1 0x40 MLOAD DUP1 SWAP2 SUB SWAP1 REVERT JUMPDEST PUSH0 PUSH1 0x3 PUSH0 CALLER PUSH20 0xFFFFFFFFFFFFFFFFFFFFFFFFFFFFFFFFFFFFFFFF AND PUSH20 0xFFFFFFFFFFFFFFFFFFFFFFFFFFFFFFFFFFFFFFFF AND DUP2 MSTORE PUSH1 0x20 ADD SWAP1 DUP2 MSTORE PUSH1 0x20 ADD PUSH0 KECCAK256 SLOAD SWAP1 POP DUP3 DUP2 LT ISZERO PUSH2 0x33F JUMPI DUP1 DUP4 PUSH1 0x40 MLOAD PUSH32 0xCF47918100000000000000000000000000000000000000000000000000000000 DUP2 MSTORE PUSH1 0x4 ADD PUSH2 0x336 SWAP3 SWAP2 SWAP1 PUSH2 0x771 JUMP JUMPDEST PUSH1 0x40 MLOAD DUP1 SWAP2 SUB SWAP1 REVERT JUMPDEST DUP3 DUP2 PUSH2 0x34B SWAP2 SWAP1 PUSH2 0x7C5 JUMP JUMPDEST PUSH1 0x3 PUSH0 CALLER PUSH20 0xFFFFFFFFFFFFFFFFFFFFFFFFFFFFFFFFFFFFFFFF AND PUSH20 0xFFFFFFFFFFFFFFFFFFFFFFFFFFFFFFFFFFFFFFFF AND DUP2 MSTORE PUSH1 0x20 ADD SWAP1 DUP2 MSTORE PUSH1 0x20 ADD PUSH0 KECCAK256 DUP2 SWAP1 SSTORE POP PUSH1 0x2 PUSH0 DUP2 SLOAD DUP1 SWAP3 SWAP2 SWAP1 PUSH2 0x39E SWAP1 PUSH2 0x7F8 JUMP JUMPDEST SWAP2 SWAP1 POP SSTORE POP DUP3 PUSH0 DUP1 DUP3 DUP3 SLOAD PUSH2 0x3B3 SWAP2 SWAP1 PUSH2 0x7C5 JUMP JUMPDEST SWAP3 POP POP DUP2 SWAP1 SSTORE POP PUSH0 CALLER PUSH20 0xFFFFFFFFFFFFFFFFFFFFFFFFFFFFFFFFFFFFFFFF AND DUP5 PUSH1 0x40 MLOAD PUSH2 0x3DF SWAP1 PUSH2 0x86C JUMP JUMPDEST PUSH0 PUSH1 0x40 MLOAD DUP1 DUP4 SUB DUP2 DUP6 DUP8 GAS CALL SWAP3 POP POP POP RETURNDATASIZE DUP1 PUSH0 DUP2 EQ PUSH2 0x419 JUMPI PUSH1 0x40 MLOAD SWAP2 POP PUSH1 0x1F NOT PUSH1 0x3F RETURNDATASIZE ADD AND DUP3 ADD PUSH1 0x40 MSTORE RETURNDATASIZE DUP3 MSTORE RETURNDATASIZE PUSH0 PUSH1 0x20 DUP5 ADD RETURNDATACOPY PUSH2 0x41E JUMP JUMPDEST PUSH1 0x60 SWAP2 POP JUMPDEST POP POP SWAP1 POP DUP1 PUSH2 0x459 JUMPI PUSH1 0x40 MLOAD PUSH32 0x6D963F8800000000000000000000000000000000000000000000000000000000 DUP2 MSTORE PUSH1 0x4 ADD PUSH1 0x40 MLOAD DUP1 SWAP2 SUB SWAP1 REVERT JUMPDEST PUSH32 0xF279E6A1F5E320CCA91135676D9CB6E44CA8A08C0B88342BCDB1144F6511B568 CALLER DUP6 PUSH1 0x3 PUSH0 CALLER PUSH20 0xFFFFFFFFFFFFFFFFFFFFFFFFFFFFFFFFFFFFFFFF AND PUSH20 0xFFFFFFFFFFFFFFFFFFFFFFFFFFFFFFFFFFFFFFFF AND DUP2 MSTORE PUSH1 0x20 ADD SWAP1 DUP2 MSTORE PUSH1 0x20 ADD PUSH0 KECCAK256 SLOAD PUSH1 0x40 MLOAD PUSH2 0x4C9 SWAP4 SWAP3 SWAP2 SWAP1 PUSH2 0x8BF JUMP JUMPDEST PUSH1 0x40 MLOAD DUP1 SWAP2 SUB SWAP1 LOG1 POP POP POP POP JUMP JUMPDEST PUSH1 0x2 SLOAD DUP2 JUMP JUMPDEST CALLVALUE PUSH0 DUP2 SUB PUSH2 0x517 JUMPI PUSH1 0x40 MLOAD PUSH32 0x1F2A200500000000000000000000000000000000000000000000000000000000 DUP2 MSTORE PUSH1 0x4 ADD PUSH1 0x40 MLOAD DUP1 SWAP2 SUB SWAP1 REVERT JUMPDEST PUSH0 CALLVALUE PUSH0 SLOAD PUSH2 0x525 SWAP2 SWAP1 PUSH2 0x8F4 JUMP JUMPDEST SWAP1 POP PUSH32 0x0 DUP2 GT ISZERO PUSH2 0x5AE JUMPI DUP1 PUSH32 0x0 PUSH1 0x40 MLOAD PUSH32 0xB2AAFB2500000000000000000000000000000000000000000000000000000000 DUP2 MSTORE PUSH1 0x4 ADD PUSH2 0x5A5 SWAP3 SWAP2 SWAP1 PUSH2 0x771 JUMP JUMPDEST PUSH1 0x40 MLOAD DUP1 SWAP2 SUB SWAP1 REVERT JUMPDEST CALLVALUE PUSH1 0x3 PUSH0 CALLER PUSH20 0xFFFFFFFFFFFFFFFFFFFFFFFFFFFFFFFFFFFFFFFF AND PUSH20 0xFFFFFFFFFFFFFFFFFFFFFFFFFFFFFFFFFFFFFFFF AND DUP2 MSTORE PUSH1 0x20 ADD SWAP1 DUP2 MSTORE PUSH1 0x20 ADD PUSH0 KECCAK256 PUSH0 DUP3 DUP3 SLOAD PUSH2 0x5FA SWAP2 SWAP1 PUSH2 0x8F4 JUMP JUMPDEST SWAP3 POP POP DUP2 SWAP1 SSTORE POP DUP1 PUSH0 DUP2 SWAP1 SSTORE POP PUSH1 0x1 PUSH0 DUP2 SLOAD DUP1 SWAP3 SWAP2 SWAP1 PUSH2 0x619 SWAP1 PUSH2 0x7F8 JUMP JUMPDEST SWAP2 SWAP1 POP SSTORE POP PUSH32 0x90890809C654F11D6E72A28FA60149770A0D11EC6C92319D6CEB2BB0A4EA1A15 CALLER CALLVALUE PUSH1 0x3 PUSH0 CALLER PUSH20 0xFFFFFFFFFFFFFFFFFFFFFFFFFFFFFFFFFFFFFFFF AND PUSH20 0xFFFFFFFFFFFFFFFFFFFFFFFFFFFFFFFFFFFFFFFF AND DUP2 MSTORE PUSH1 0x20 ADD SWAP1 DUP2 MSTORE PUSH1 0x20 ADD PUSH0 KECCAK256 SLOAD PUSH1 0x40 MLOAD PUSH2 0x68E SWAP4 SWAP3 SWAP2 SWAP1 PUSH2 0x8BF JUMP JUMPDEST PUSH1 0x40 MLOAD DUP1 SWAP2 SUB SWAP1 LOG1 POP POP JUMP JUMPDEST PUSH32 0x0 DUP2 JUMP JUMPDEST PUSH32 0x0 DUP2 JUMP JUMPDEST PUSH0 SLOAD DUP2 JUMP JUMPDEST PUSH0 DUP2 SWAP1 POP SWAP2 SWAP1 POP JUMP JUMPDEST PUSH2 0x6F9 DUP2 PUSH2 0x6E7 JUMP JUMPDEST DUP3 MSTORE POP POP JUMP JUMPDEST PUSH0 PUSH1 0x20 DUP3 ADD SWAP1 POP PUSH2 0x712 PUSH0 DUP4 ADD DUP5 PUSH2 0x6F0 JUMP JUMPDEST SWAP3 SWAP2 POP POP JUMP JUMPDEST PUSH0 DUP1 REVERT JUMPDEST PUSH2 0x725 DUP2 PUSH2 0x6E7 JUMP JUMPDEST DUP2 EQ PUSH2 0x72F JUMPI PUSH0 DUP1 REVERT JUMPDEST POP JUMP JUMPDEST PUSH0 DUP2 CALLDATALOAD SWAP1 POP PUSH2 0x740 DUP2 PUSH2 0x71C JUMP JUMPDEST SWAP3 SWAP2 POP POP JUMP JUMPDEST PUSH0 PUSH1 0x20 DUP3 DUP5 SUB SLT ISZERO PUSH2 0x75B JUMPI PUSH2 0x75A PUSH2 0x718 JUMP JUMPDEST JUMPDEST PUSH0 PUSH2 0x768 DUP5 DUP3 DUP6 ADD PUSH2 0x732 JUMP JUMPDEST SWAP2 POP POP SWAP3 SWAP2 POP POP JUMP JUMPDEST PUSH0 PUSH1 0x40 DUP3 ADD SWAP1 POP PUSH2 0x784 PUSH0 DUP4 ADD DUP6 PUSH2 0x6F0 JUMP JUMPDEST PUSH2 0x791 PUSH1 0x20 DUP4 ADD DUP5 PUSH2 0x6F0 JUMP JUMPDEST SWAP4 SWAP3 POP POP POP JUMP JUMPDEST PUSH32 0x4E487B7100000000000000000000000000000000000000000000000000000000 PUSH0 MSTORE PUSH1 0x11 PUSH1 0x4 MSTORE PUSH1 0x24 PUSH0 REVERT JUMPDEST PUSH0 PUSH2 0x7CF DUP3 PUSH2 0x6E7 JUMP JUMPDEST SWAP2 POP PUSH2 0x7DA DUP4 PUSH2 0x6E7 JUMP JUMPDEST SWAP3 POP DUP3 DUP3 SUB SWAP1 POP DUP2 DUP2 GT ISZERO PUSH2 0x7F2 JUMPI PUSH2 0x7F1 PUSH2 0x798 JUMP JUMPDEST JUMPDEST SWAP3 SWAP2 POP POP JUMP JUMPDEST PUSH0 PUSH2 0x802 DUP3 PUSH2 0x6E7 JUMP JUMPDEST SWAP2 POP PUSH32 0xFFFFFFFFFFFFFFFFFFFFFFFFFFFFFFFFFFFFFFFFFFFFFFFFFFFFFFFFFFFFFFFF DUP3 SUB PUSH2 0x834 JUMPI PUSH2 0x833 PUSH2 0x798 JUMP JUMPDEST JUMPDEST PUSH1 0x1 DUP3 ADD SWAP1 POP SWAP2 SWAP1 POP JUMP JUMPDEST PUSH0 DUP2 SWAP1 POP SWAP3 SWAP2 POP POP JUMP JUMPDEST POP JUMP JUMPDEST PUSH0 PUSH2 0x857 PUSH0 DUP4 PUSH2 0x83F JUMP JUMPDEST SWAP2 POP PUSH2 0x862 DUP3 PUSH2 0x849 JUMP JUMPDEST PUSH0 DUP3 ADD SWAP1 POP SWAP2 SWAP1 POP JUMP JUMPDEST PUSH0 PUSH2 0x876 DUP3 PUSH2 0x84C JUMP JUMPDEST SWAP2 POP DUP2 SWAP1 POP SWAP2 SWAP1 POP JUMP JUMPDEST PUSH0 PUSH20 0xFFFFFFFFFFFFFFFFFFFFFFFFFFFFFFFFFFFFFFFF DUP3 AND SWAP1 POP SWAP2 SWAP1 POP JUMP JUMPDEST PUSH0 PUSH2 0x8A9 DUP3 PUSH2 0x880 JUMP JUMPDEST SWAP1 POP SWAP2 SWAP1 POP JUMP JUMPDEST PUSH2 0x8B9 DUP2 PUSH2 0x89F JUMP JUMPDEST DUP3 MSTORE POP POP JUMP JUMPDEST PUSH0 PUSH1 0x60 DUP3 ADD SWAP1 POP PUSH2 0x8D2 PUSH0 DUP4 ADD DUP7 PUSH2 0x8B0 JUMP JUMPDEST PUSH2 0x8DF PUSH1 0x20 DUP4 ADD DUP6 PUSH2 0x6F0 JUMP JUMPDEST PUSH2 0x8EC PUSH1 0x40 DUP4 ADD DUP5 PUSH2 0x6F0 JUMP JUMPDEST SWAP5 SWAP4 POP POP POP POP JUMP JUMPDEST PUSH0 PUSH2 0x8FE DUP3 PUSH2 0x6E7 JUMP JUMPDEST SWAP2 POP PUSH2 0x909 DUP4 PUSH2 0x6E7 JUMP JUMPDEST SWAP3 POP DUP3 DUP3 ADD SWAP1 POP DUP1 DUP3 GT ISZERO PUSH2 0x921 JUMPI PUSH2 0x920 PUSH2 0x798 JUMP JUMPDEST JUMPDEST SWAP3 SWAP2 POP POP JUMP INVALID LOG2 PUSH5 0x6970667358 0x22 SLT KECCAK256 0xE1 SLT PUSH2 0x7A8B 0xD8 EXTCODESIZE PUSH3 0x733C80 PUSH30 0x52CF0D9AF07284EB6ECFCB4A1C6FD8E5D0850CB664736F6C634300081A00 CALLER "
				},
				"gasEstimates": {
					"creation": {
						"codeDepositCost": "479400",
						"executionCost": "infinite",
						"totalCost": "infinite"
					},
					"external": {
						"bankCap()": "infinite",
						"deposit()": "infinite",
						"depositCount()": "2448",
						"getBalance()": "2520",
						"totalDeposited()": "2490",
						"withdraw(uint256)": "infinite",
						"withdrawCount()": "2492",
						"withdrawLimit()": "infinite"
					},
					"internal": {
						"_balanceOf(address)": "infinite"
					}
				},
				"methodIdentifiers": {
					"bankCap()": "ecbea24d",
					"deposit()": "d0e30db0",
					"depositCount()": "2dfdf0b5",
					"getBalance()": "12065fe0",
					"totalDeposited()": "ff50abdc",
					"withdraw(uint256)": "2e1a7d4d",
					"withdrawCount()": "4cc05a71",
					"withdrawLimit()": "f848d541"
				}
			},
			"storageLayout": {
				"storage": [
					{
						"astId": 56,
						"contract": "contracts/kipu-bank.sol:KipuBank",
						"label": "totalDeposited",
						"offset": 0,
						"slot": "0",
						"type": "t_uint256"
					},
					{
						"astId": 59,
						"contract": "contracts/kipu-bank.sol:KipuBank",
						"label": "depositCount",
						"offset": 0,
						"slot": "1",
						"type": "t_uint256"
					},
					{
						"astId": 62,
						"contract": "contracts/kipu-bank.sol:KipuBank",
						"label": "withdrawCount",
						"offset": 0,
						"slot": "2",
						"type": "t_uint256"
					},
					{
						"astId": 67,
						"contract": "contracts/kipu-bank.sol:KipuBank",
						"label": "balances",
						"offset": 0,
						"slot": "3",
						"type": "t_mapping(t_address,t_uint256)"
					}
				],
				"types": {
					"t_address": {
						"encoding": "inplace",
						"label": "address",
						"numberOfBytes": "20"
					},
					"t_mapping(t_address,t_uint256)": {
						"encoding": "mapping",
						"key": "t_address",
						"label": "mapping(address => uint256)",
						"numberOfBytes": "32",
						"value": "t_uint256"
					},
					"t_uint256": {
						"encoding": "inplace",
						"label": "uint256",
						"numberOfBytes": "32"
					}
				}
			},
			"userdoc": {
				"errors": {
					"DepositCapExceeded(uint256,uint256)": [
						{
							"notice": "Supera el tope global de depósitos."
						}
					],
					"EthTransferFailed()": [
						{
							"notice": "Falla en enviar ETH (llamada nativa)."
						}
					],
					"InsufficientBalance(uint256,uint256)": [
						{
							"notice": "Saldo insuficiente."
						}
					],
					"WithdrawLimitExceeded(uint256,uint256)": [
						{
							"notice": "Supera el límite por retiro."
						}
					],
					"ZeroAmount()": [
						{
							"notice": "Monto debe ser > 0."
						}
					]
				},
				"events": {
					"Deposit(address,uint256,uint256)": {
						"notice": "Se emite al depositar ETH."
					},
					"Withdraw(address,uint256,uint256)": {
						"notice": "Se emite al retirar ETH."
					}
				},
				"kind": "user",
				"methods": {
					"bankCap()": {
						"notice": "Tope global de depósitos (wei)."
					},
					"deposit()": {
						"notice": "Deposita ETH en tu bóveda personal."
					},
					"depositCount()": {
						"notice": "Número total de depósitos."
					},
					"getBalance()": {
						"notice": "Devuelve TU saldo en la bóveda."
					},
					"totalDeposited()": {
						"notice": "Total depositado en el contrato."
					},
					"withdraw(uint256)": {
						"notice": "Retira ETH de tu bóveda personal."
					},
					"withdrawCount()": {
						"notice": "Número total de retiros."
					},
					"withdrawLimit()": {
						"notice": "Límite máximo por retiro (wei)."
					}
				},
				"notice": "Bovedas personales de ETH con límite por transaccion y tope global",
				"version": 1
			}
		}
	}
}