{
	"data": {
		"bytecode": {
			"linkReferences": {},
			"object": "60c060405234801561000f575f80fd5b50604051610a31380380610a31833981810160405281019061003191906100c3565b5f82148061003e57505f81145b15610075576040517f85ea51af00000000000000000000000000000000000000000000000000000000815260040160405180910390fd5b81608081815250508060a081815250505050610101565b5f80fd5b5f819050919050565b6100a281610090565b81146100ac575f80fd5b50565b5f815190506100bd81610099565b92915050565b5f80604083850312156100d9576100d861008c565b5b5f6100e6858286016100af565b92505060206100f7858286016100af565b9150509250929050565b60805160a0516108f361013e5f395f81816101ae0152818161021c015261024501525f8181610389015281816103f2015261041b01526108f35ff3fe60806040526004361061007a575f3560e01c8063869682591161004d5780638696825914610106578063e8b1298f14610130578063eee7d58214610158578063f061293a146101825761007a565b806324e247fe1461007e5780633d922f90146100a857806344953313146100b25780635f0073d0146100dc575b5f80fd5b348015610089575f80fd5b506100926101ac565b60405161009f91906106dc565b60405180910390f35b6100b06101d0565b005b3480156100bd575f80fd5b506100c6610387565b6040516100d391906106dc565b60405180910390f35b3480156100e7575f80fd5b506100f06103ab565b6040516100fd91906106dc565b60405180910390f35b348015610111575f80fd5b5061011a6103b0565b60405161012791906106dc565b60405180910390f35b34801561013b575f80fd5b5061015660048036038101906101519190610723565b6103b6565b005b348015610163575f80fd5b5061016c61067a565b60405161017991906106dc565b60405180910390f35b34801561018d575f80fd5b506101966106be565b6040516101a391906106dc565b60405180910390f35b7f000000000000000000000000000000000000000000000000000000000000000081565b345f810361020a576040517f85ea51af00000000000000000000000000000000000000000000000000000000815260040160405180910390fd5b5f345f54610218919061077b565b90507f00000000000000000000000000000000000000000000000000000000000000008111156102a157807f00000000000000000000000000000000000000000000000000000000000000006040517f1cbdc76f0000000000000000000000000000000000000000000000000000000081526004016102989291906107ae565b60405180910390fd5b3460035f3373ffffffffffffffffffffffffffffffffffffffff1673ffffffffffffffffffffffffffffffffffffffff1681526020019081526020015f205f8282546102ed919061077b565b92505081905550805f8190555060015f81548092919060010191905055507f610daa02a124f86e54502578bf493432a3834b1138f1456e59e0e807357b6395333460035f3373ffffffffffffffffffffffffffffffffffffffff1673ffffffffffffffffffffffffffffffffffffffff1681526020019081526020015f205460405161037b93929190610814565b60405180910390a15050565b7f000000000000000000000000000000000000000000000000000000000000000081565b5f5481565b60015481565b805f81036103f0576040517f85ea51af00000000000000000000000000000000000000000000000000000000815260040160405180910390fd5b7f000000000000000000000000000000000000000000000000000000000000000082111561047757817f00000000000000000000000000000000000000000000000000000000000000006040517ff31db09300000000000000000000000000000000000000000000000000000000815260040161046e9291906107ae565b60405180910390fd5b5f60035f3373ffffffffffffffffffffffffffffffffffffffff1673ffffffffffffffffffffffffffffffffffffffff1681526020019081526020015f20549050828110156104ff5780836040517f9d8b89ca0000000000000000000000000000000000000000000000000000000081526004016104f69291906107ae565b60405180910390fd5b828161050b9190610849565b60035f3373ffffffffffffffffffffffffffffffffffffffff1673ffffffffffffffffffffffffffffffffffffffff1681526020019081526020015f208190555060025f81548092919060010191905055505f3373ffffffffffffffffffffffffffffffffffffffff1684604051610582906108a9565b5f6040518083038185875af1925050503d805f81146105bc576040519150601f19603f3d011682016040523d82523d5f602084013e6105c1565b606091505b50509050806105fc576040517f87988e5d00000000000000000000000000000000000000000000000000000000815260040160405180910390fd5b7f513a4e63a7de56cc9b7c15d2467c0ad91c82df2b439cc2c4992f0b3b4b997d14338560035f3373ffffffffffffffffffffffffffffffffffffffff1673ffffffffffffffffffffffffffffffffffffffff1681526020019081526020015f205460405161066c93929190610814565b60405180910390a150505050565b5f60035f3373ffffffffffffffffffffffffffffffffffffffff1673ffffffffffffffffffffffffffffffffffffffff1681526020019081526020015f2054905090565b60025481565b5f819050919050565b6106d6816106c4565b82525050565b5f6020820190506106ef5f8301846106cd565b92915050565b5f80fd5b610702816106c4565b811461070c575f80fd5b50565b5f8135905061071d816106f9565b92915050565b5f60208284031215610738576107376106f5565b5b5f6107458482850161070f565b91505092915050565b7f4e487b71000000000000000000000000000000000000000000000000000000005f52601160045260245ffd5b5f610785826106c4565b9150610790836106c4565b92508282019050808211156107a8576107a761074e565b5b92915050565b5f6040820190506107c15f8301856106cd565b6107ce60208301846106cd565b9392505050565b5f73ffffffffffffffffffffffffffffffffffffffff82169050919050565b5f6107fe826107d5565b9050919050565b61080e816107f4565b82525050565b5f6060820190506108275f830186610805565b61083460208301856106cd565b61084160408301846106cd565b949350505050565b5f610853826106c4565b915061085e836106c4565b92508282039050818111156108765761087561074e565b5b92915050565b5f81905092915050565b50565b5f6108945f8361087c565b915061089f82610886565b5f82019050919050565b5f6108b382610889565b915081905091905056fea2646970667358221220ba38ecfd09deabf08db459545d42f8e32d9d1bcaa0085dfeec8a8a8ee2ad7baa64736f6c634300081a0033",
			"opcodes": "PUSH1 0xC0 PUSH1 0x40 MSTORE CALLVALUE DUP1 ISZERO PUSH2 0xF JUMPI PUSH0 DUP1 REVERT JUMPDEST POP PUSH1 0x40 MLOAD PUSH2 0xA31 CODESIZE SUB DUP1 PUSH2 0xA31 DUP4 CODECOPY DUP2 DUP2 ADD PUSH1 0x40 MSTORE DUP2 ADD SWAP1 PUSH2 0x31 SWAP2 SWAP1 PUSH2 0xC3 JUMP JUMPDEST PUSH0 DUP3 EQ DUP1 PUSH2 0x3E JUMPI POP PUSH0 DUP2 EQ JUMPDEST ISZERO PUSH2 0x75 JUMPI PUSH1 0x40 MLOAD PUSH32 0x85EA51AF00000000000000000000000000000000000000000000000000000000 DUP2 MSTORE PUSH1 0x4 ADD PUSH1 0x40 MLOAD DUP1 SWAP2 SUB SWAP1 REVERT JUMPDEST DUP2 PUSH1 0x80 DUP2 DUP2 MSTORE POP POP DUP1 PUSH1 0xA0 DUP2 DUP2 MSTORE POP POP POP POP PUSH2 0x101 JUMP JUMPDEST PUSH0 DUP1 REVERT JUMPDEST PUSH0 DUP2 SWAP1 POP SWAP2 SWAP1 POP JUMP JUMPDEST PUSH2 0xA2 DUP2 PUSH2 0x90 JUMP JUMPDEST DUP2 EQ PUSH2 0xAC JUMPI PUSH0 DUP1 REVERT JUMPDEST POP JUMP JUMPDEST PUSH0 DUP2 MLOAD SWAP1 POP PUSH2 0xBD DUP2 PUSH2 0x99 JUMP JUMPDEST SWAP3 SWAP2 POP POP JUMP JUMPDEST PUSH0 DUP1 PUSH1 0x40 DUP4 DUP6 SUB SLT ISZERO PUSH2 0xD9 JUMPI PUSH2 0xD8 PUSH2 0x8C JUMP JUMPDEST JUMPDEST PUSH0 PUSH2 0xE6 DUP6 DUP3 DUP7 ADD PUSH2 0xAF JUMP JUMPDEST SWAP3 POP POP PUSH1 0x20 PUSH2 0xF7 DUP6 DUP3 DUP7 ADD PUSH2 0xAF JUMP JUMPDEST SWAP2 POP POP SWAP3 POP SWAP3 SWAP1 POP JUMP JUMPDEST PUSH1 0x80 MLOAD PUSH1 0xA0 MLOAD PUSH2 0x8F3 PUSH2 0x13E PUSH0 CODECOPY PUSH0 DUP2 DUP2 PUSH2 0x1AE ADD MSTORE DUP2 DUP2 PUSH2 0x21C ADD MSTORE PUSH2 0x245 ADD MSTORE PUSH0 DUP2 DUP2 PUSH2 0x389 ADD MSTORE DUP2 DUP2 PUSH2 0x3F2 ADD MSTORE PUSH2 0x41B ADD MSTORE PUSH2 0x8F3 PUSH0 RETURN INVALID PUSH1 0x80 PUSH1 0x40 MSTORE PUSH1 0x4 CALLDATASIZE LT PUSH2 0x7A JUMPI PUSH0 CALLDATALOAD PUSH1 0xE0 SHR DUP1 PUSH4 0x86968259 GT PUSH2 0x4D JUMPI DUP1 PUSH4 0x86968259 EQ PUSH2 0x106 JUMPI DUP1 PUSH4 0xE8B1298F EQ PUSH2 0x130 JUMPI DUP1 PUSH4 0xEEE7D582 EQ PUSH2 0x158 JUMPI DUP1 PUSH4 0xF061293A EQ PUSH2 0x182 JUMPI PUSH2 0x7A JUMP JUMPDEST DUP1 PUSH4 0x24E247FE EQ PUSH2 0x7E JUMPI DUP1 PUSH4 0x3D922F90 EQ PUSH2 0xA8 JUMPI DUP1 PUSH4 0x44953313 EQ PUSH2 0xB2 JUMPI DUP1 PUSH4 0x5F0073D0 EQ PUSH2 0xDC JUMPI JUMPDEST PUSH0 DUP1 REVERT JUMPDEST CALLVALUE DUP1 ISZERO PUSH2 0x89 JUMPI PUSH0 DUP1 REVERT JUMPDEST POP PUSH2 0x92 PUSH2 0x1AC JUMP JUMPDEST PUSH1 0x40 MLOAD PUSH2 0x9F SWAP2 SWAP1 PUSH2 0x6DC JUMP JUMPDEST PUSH1 0x40 MLOAD DUP1 SWAP2 SUB SWAP1 RETURN JUMPDEST PUSH2 0xB0 PUSH2 0x1D0 JUMP JUMPDEST STOP JUMPDEST CALLVALUE DUP1 ISZERO PUSH2 0xBD JUMPI PUSH0 DUP1 REVERT JUMPDEST POP PUSH2 0xC6 PUSH2 0x387 JUMP JUMPDEST PUSH1 0x40 MLOAD PUSH2 0xD3 SWAP2 SWAP1 PUSH2 0x6DC JUMP JUMPDEST PUSH1 0x40 MLOAD DUP1 SWAP2 SUB SWAP1 RETURN JUMPDEST CALLVALUE DUP1 ISZERO PUSH2 0xE7 JUMPI PUSH0 DUP1 REVERT JUMPDEST POP PUSH2 0xF0 PUSH2 0x3AB JUMP JUMPDEST PUSH1 0x40 MLOAD PUSH2 0xFD SWAP2 SWAP1 PUSH2 0x6DC JUMP JUMPDEST PUSH1 0x40 MLOAD DUP1 SWAP2 SUB SWAP1 RETURN JUMPDEST CALLVALUE DUP1 ISZERO PUSH2 0x111 JUMPI PUSH0 DUP1 REVERT JUMPDEST POP PUSH2 0x11A PUSH2 0x3B0 JUMP JUMPDEST PUSH1 0x40 MLOAD PUSH2 0x127 SWAP2 SWAP1 PUSH2 0x6DC JUMP JUMPDEST PUSH1 0x40 MLOAD DUP1 SWAP2 SUB SWAP1 RETURN JUMPDEST CALLVALUE DUP1 ISZERO PUSH2 0x13B JUMPI PUSH0 DUP1 REVERT JUMPDEST POP PUSH2 0x156 PUSH1 0x4 DUP1 CALLDATASIZE SUB DUP2 ADD SWAP1 PUSH2 0x151 SWAP2 SWAP1 PUSH2 0x723 JUMP JUMPDEST PUSH2 0x3B6 JUMP JUMPDEST STOP JUMPDEST CALLVALUE DUP1 ISZERO PUSH2 0x163 JUMPI PUSH0 DUP1 REVERT JUMPDEST POP PUSH2 0x16C PUSH2 0x67A JUMP JUMPDEST PUSH1 0x40 MLOAD PUSH2 0x179 SWAP2 SWAP1 PUSH2 0x6DC JUMP JUMPDEST PUSH1 0x40 MLOAD DUP1 SWAP2 SUB SWAP1 RETURN JUMPDEST CALLVALUE DUP1 ISZERO PUSH2 0x18D JUMPI PUSH0 DUP1 REVERT JUMPDEST POP PUSH2 0x196 PUSH2 0x6BE JUMP JUMPDEST PUSH1 0x40 MLOAD PUSH2 0x1A3 SWAP2 SWAP1 PUSH2 0x6DC JUMP JUMPDEST PUSH1 0x40 MLOAD DUP1 SWAP2 SUB SWAP1 RETURN JUMPDEST PUSH32 0x0 DUP2 JUMP JUMPDEST CALLVALUE PUSH0 DUP2 SUB PUSH2 0x20A JUMPI PUSH1 0x40 MLOAD PUSH32 0x85EA51AF00000000000000000000000000000000000000000000000000000000 DUP2 MSTORE PUSH1 0x4 ADD PUSH1 0x40 MLOAD DUP1 SWAP2 SUB SWAP1 REVERT JUMPDEST PUSH0 CALLVALUE PUSH0 SLOAD PUSH2 0x218 SWAP2 SWAP1 PUSH2 0x77B JUMP JUMPDEST SWAP1 POP PUSH32 0x0 DUP2 GT ISZERO PUSH2 0x2A1 JUMPI DUP1 PUSH32 0x0 PUSH1 0x40 MLOAD PUSH32 0x1CBDC76F00000000000000000000000000000000000000000000000000000000 DUP2 MSTORE PUSH1 0x4 ADD PUSH2 0x298 SWAP3 SWAP2 SWAP1 PUSH2 0x7AE JUMP JUMPDEST PUSH1 0x40 MLOAD DUP1 SWAP2 SUB SWAP1 REVERT JUMPDEST CALLVALUE PUSH1 0x3 PUSH0 CALLER PUSH20 0xFFFFFFFFFFFFFFFFFFFFFFFFFFFFFFFFFFFFFFFF AND PUSH20 0xFFFFFFFFFFFFFFFFFFFFFFFFFFFFFFFFFFFFFFFF AND DUP2 MSTORE PUSH1 0x20 ADD SWAP1 DUP2 MSTORE PUSH1 0x20 ADD PUSH0 KECCAK256 PUSH0 DUP3 DUP3 SLOAD PUSH2 0x2ED SWAP2 SWAP1 PUSH2 0x77B JUMP JUMPDEST SWAP3 POP POP DUP2 SWAP1 SSTORE POP DUP1 PUSH0 DUP2 SWAP1 SSTORE POP PUSH1 0x1 PUSH0 DUP2 SLOAD DUP1 SWAP3 SWAP2 SWAP1 PUSH1 0x1 ADD SWAP2 SWAP1 POP SSTORE POP PUSH32 0x610DAA02A124F86E54502578BF493432A3834B1138F1456E59E0E807357B6395 CALLER CALLVALUE PUSH1 0x3 PUSH0 CALLER PUSH20 0xFFFFFFFFFFFFFFFFFFFFFFFFFFFFFFFFFFFFFFFF AND PUSH20 0xFFFFFFFFFFFFFFFFFFFFFFFFFFFFFFFFFFFFFFFF AND DUP2 MSTORE PUSH1 0x20 ADD SWAP1 DUP2 MSTORE PUSH1 0x20 ADD PUSH0 KECCAK256 SLOAD PUSH1 0x40 MLOAD PUSH2 0x37B SWAP4 SWAP3 SWAP2 SWAP1 PUSH2 0x814 JUMP JUMPDEST PUSH1 0x40 MLOAD DUP1 SWAP2 SUB SWAP1 LOG1 POP POP JUMP JUMPDEST PUSH32 0x0 DUP2 JUMP JUMPDEST PUSH0 SLOAD DUP2 JUMP JUMPDEST PUSH1 0x1 SLOAD DUP2 JUMP JUMPDEST DUP1 PUSH0 DUP2 SUB PUSH2 0x3F0 JUMPI PUSH1 0x40 MLOAD PUSH32 0x85EA51AF00000000000000000000000000000000000000000000000000000000 DUP2 MSTORE PUSH1 0x4 ADD PUSH1 0x40 MLOAD DUP1 SWAP2 SUB SWAP1 REVERT JUMPDEST PUSH32 0x0 DUP3 GT ISZERO PUSH2 0x477 JUMPI DUP2 PUSH32 0x0 PUSH1 0x40 MLOAD PUSH32 0xF31DB09300000000000000000000000000000000000000000000000000000000 DUP2 MSTORE PUSH1 0x4 ADD PUSH2 0x46E SWAP3 SWAP2 SWAP1 PUSH2 0x7AE JUMP JUMPDEST PUSH1 0x40 MLOAD DUP1 SWAP2 SUB SWAP1 REVERT JUMPDEST PUSH0 PUSH1 0x3 PUSH0 CALLER PUSH20 0xFFFFFFFFFFFFFFFFFFFFFFFFFFFFFFFFFFFFFFFF AND PUSH20 0xFFFFFFFFFFFFFFFFFFFFFFFFFFFFFFFFFFFFFFFF AND DUP2 MSTORE PUSH1 0x20 ADD SWAP1 DUP2 MSTORE PUSH1 0x20 ADD PUSH0 KECCAK256 SLOAD SWAP1 POP DUP3 DUP2 LT ISZERO PUSH2 0x4FF JUMPI DUP1 DUP4 PUSH1 0x40 MLOAD PUSH32 0x9D8B89CA00000000000000000000000000000000000000000000000000000000 DUP2 MSTORE PUSH1 0x4 ADD PUSH2 0x4F6 SWAP3 SWAP2 SWAP1 PUSH2 0x7AE JUMP JUMPDEST PUSH1 0x40 MLOAD DUP1 SWAP2 SUB SWAP1 REVERT JUMPDEST DUP3 DUP2 PUSH2 0x50B SWAP2 SWAP1 PUSH2 0x849 JUMP JUMPDEST PUSH1 0x3 PUSH0 CALLER PUSH20 0xFFFFFFFFFFFFFFFFFFFFFFFFFFFFFFFFFFFFFFFF AND PUSH20 0xFFFFFFFFFFFFFFFFFFFFFFFFFFFFFFFFFFFFFFFF AND DUP2 MSTORE PUSH1 0x20 ADD SWAP1 DUP2 MSTORE PUSH1 0x20 ADD PUSH0 KECCAK256 DUP2 SWAP1 SSTORE POP PUSH1 0x2 PUSH0 DUP2 SLOAD DUP1 SWAP3 SWAP2 SWAP1 PUSH1 0x1 ADD SWAP2 SWAP1 POP SSTORE POP PUSH0 CALLER PUSH20 0xFFFFFFFFFFFFFFFFFFFFFFFFFFFFFFFFFFFFFFFF AND DUP5 PUSH1 0x40 MLOAD PUSH2 0x582 SWAP1 PUSH2 0x8A9 JUMP JUMPDEST PUSH0 PUSH1 0x40 MLOAD DUP1 DUP4 SUB DUP2 DUP6 DUP8 GAS CALL SWAP3 POP POP POP RETURNDATASIZE DUP1 PUSH0 DUP2 EQ PUSH2 0x5BC JUMPI PUSH1 0x40 MLOAD SWAP2 POP PUSH1 0x1F NOT PUSH1 0x3F RETURNDATASIZE ADD AND DUP3 ADD PUSH1 0x40 MSTORE RETURNDATASIZE DUP3 MSTORE RETURNDATASIZE PUSH0 PUSH1 0x20 DUP5 ADD RETURNDATACOPY PUSH2 0x5C1 JUMP JUMPDEST PUSH1 0x60 SWAP2 POP JUMPDEST POP POP SWAP1 POP DUP1 PUSH2 0x5FC JUMPI PUSH1 0x40 MLOAD PUSH32 0x87988E5D00000000000000000000000000000000000000000000000000000000 DUP2 MSTORE PUSH1 0x4 ADD PUSH1 0x40 MLOAD DUP1 SWAP2 SUB SWAP1 REVERT JUMPDEST PUSH32 0x513A4E63A7DE56CC9B7C15D2467C0AD91C82DF2B439CC2C4992F0B3B4B997D14 CALLER DUP6 PUSH1 0x3 PUSH0 CALLER PUSH20 0xFFFFFFFFFFFFFFFFFFFFFFFFFFFFFFFFFFFFFFFF AND PUSH20 0xFFFFFFFFFFFFFFFFFFFFFFFFFFFFFFFFFFFFFFFF AND DUP2 MSTORE PUSH1 0x20 ADD SWAP1 DUP2 MSTORE PUSH1 0x20 ADD PUSH0 KECCAK256 SLOAD PUSH1 0x40 MLOAD PUSH2 0x66C SWAP4 SWAP3 SWAP2 SWAP1 PUSH2 0x814 JUMP JUMPDEST PUSH1 0x40 MLOAD DUP1 SWAP2 SUB SWAP1 LOG1 POP POP POP POP JUMP JUMPDEST PUSH0 PUSH1 0x3 PUSH0 CALLER PUSH20 0xFFFFFFFFFFFFFFFFFFFFFFFFFFFFFFFFFFFFFFFF AND PUSH20 0xFFFFFFFFFFFFFFFFFFFFFFFFFFFFFFFFFFFFFFFF AND DUP2 MSTORE PUSH1 0x20 ADD SWAP1 DUP2 MSTORE PUSH1 0x20 ADD PUSH0 KECCAK256 SLOAD SWAP1 POP SWAP1 JUMP JUMPDEST PUSH1 0x2 SLOAD DUP2 JUMP JUMPDEST PUSH0 DUP2 SWAP1 POP SWAP2 SWAP1 POP JUMP JUMPDEST PUSH2 0x6D6 DUP2 PUSH2 0x6C4 JUMP JUMPDEST DUP3 MSTORE POP POP JUMP JUMPDEST PUSH0 PUSH1 0x20 DUP3 ADD SWAP1 POP PUSH2 0x6EF PUSH0 DUP4 ADD DUP5 PUSH2 0x6CD JUMP JUMPDEST SWAP3 SWAP2 POP POP JUMP JUMPDEST PUSH0 DUP1 REVERT JUMPDEST PUSH2 0x702 DUP2 PUSH2 0x6C4 JUMP JUMPDEST DUP2 EQ PUSH2 0x70C JUMPI PUSH0 DUP1 REVERT JUMPDEST POP JUMP JUMPDEST PUSH0 DUP2 CALLDATALOAD SWAP1 POP PUSH2 0x71D DUP2 PUSH2 0x6F9 JUMP JUMPDEST SWAP3 SWAP2 POP POP JUMP JUMPDEST PUSH0 PUSH1 0x20 DUP3 DUP5 SUB SLT ISZERO PUSH2 0x738 JUMPI PUSH2 0x737 PUSH2 0x6F5 JUMP JUMPDEST JUMPDEST PUSH0 PUSH2 0x745 DUP5 DUP3 DUP6 ADD PUSH2 0x70F JUMP JUMPDEST SWAP2 POP POP SWAP3 SWAP2 POP POP JUMP JUMPDEST PUSH32 0x4E487B7100000000000000000000000000000000000000000000000000000000 PUSH0 MSTORE PUSH1 0x11 PUSH1 0x4 MSTORE PUSH1 0x24 PUSH0 REVERT JUMPDEST PUSH0 PUSH2 0x785 DUP3 PUSH2 0x6C4 JUMP JUMPDEST SWAP2 POP PUSH2 0x790 DUP4 PUSH2 0x6C4 JUMP JUMPDEST SWAP3 POP DUP3 DUP3 ADD SWAP1 POP DUP1 DUP3 GT ISZERO PUSH2 0x7A8 JUMPI PUSH2 0x7A7 PUSH2 0x74E JUMP JUMPDEST JUMPDEST SWAP3 SWAP2 POP POP JUMP JUMPDEST PUSH0 PUSH1 0x40 DUP3 ADD SWAP1 POP PUSH2 0x7C1 PUSH0 DUP4 ADD DUP6 PUSH2 0x6CD JUMP JUMPDEST PUSH2 0x7CE PUSH1 0x20 DUP4 ADD DUP5 PUSH2 0x6CD JUMP JUMPDEST SWAP4 SWAP3 POP POP POP JUMP JUMPDEST PUSH0 PUSH20 0xFFFFFFFFFFFFFFFFFFFFFFFFFFFFFFFFFFFFFFFF DUP3 AND SWAP1 POP SWAP2 SWAP1 POP JUMP JUMPDEST PUSH0 PUSH2 0x7FE DUP3 PUSH2 0x7D5 JUMP JUMPDEST SWAP1 POP SWAP2 SWAP1 POP JUMP JUMPDEST PUSH2 0x80E DUP2 PUSH2 0x7F4 JUMP JUMPDEST DUP3 MSTORE POP POP JUMP JUMPDEST PUSH0 PUSH1 0x60 DUP3 ADD SWAP1 POP PUSH2 0x827 PUSH0 DUP4 ADD DUP7 PUSH2 0x805 JUMP JUMPDEST PUSH2 0x834 PUSH1 0x20 DUP4 ADD DUP6 PUSH2 0x6CD JUMP JUMPDEST PUSH2 0x841 PUSH1 0x40 DUP4 ADD DUP5 PUSH2 0x6CD JUMP JUMPDEST SWAP5 SWAP4 POP POP POP POP JUMP JUMPDEST PUSH0 PUSH2 0x853 DUP3 PUSH2 0x6C4 JUMP JUMPDEST SWAP2 POP PUSH2 0x85E DUP4 PUSH2 0x6C4 JUMP JUMPDEST SWAP3 POP DUP3 DUP3 SUB SWAP1 POP DUP2 DUP2 GT ISZERO PUSH2 0x876 JUMPI PUSH2 0x875 PUSH2 0x74E JUMP JUMPDEST JUMPDEST SWAP3 SWAP2 POP POP JUMP JUMPDEST PUSH0 DUP2 SWAP1 POP SWAP3 SWAP2 POP POP JUMP JUMPDEST POP JUMP JUMPDEST PUSH0 PUSH2 0x894 PUSH0 DUP4 PUSH2 0x87C JUMP JUMPDEST SWAP2 POP PUSH2 0x89F DUP3 PUSH2 0x886 JUMP JUMPDEST PUSH0 DUP3 ADD SWAP1 POP SWAP2 SWAP1 POP JUMP JUMPDEST PUSH0 PUSH2 0x8B3 DUP3 PUSH2 0x889 JUMP JUMPDEST SWAP2 POP DUP2 SWAP1 POP SWAP2 SWAP1 POP JUMP INVALID LOG2 PUSH5 0x6970667358 0x22 SLT KECCAK256 0xBA CODESIZE 0xEC REVERT MULMOD 0xDE 0xAB CREATE DUP14 0xB4 MSIZE SLOAD TSTORE TIMESTAMP 0xF8 0xE3 0x2D SWAP14 SHL 0xCA LOG0 ADDMOD TSTORE INVALID 0xEC DUP11 DUP11 DUP15 0xE2 0xAD PUSH28 0xAA64736F6C634300081A003300000000000000000000000000000000 "
		},
		"gasEstimates": {
			"creation": {
				"codeDepositCost": "458200",
				"executionCost": "infinite",
				"totalCost": "infinite"
			},
			"external": {
				"contadorDepositos()": "2425",
				"contadorRetiros()": "2491",
				"depositar()": "infinite",
				"limiteRetiro()": "infinite",
				"obtenerSaldo()": "2563",
				"retirar(uint256)": "infinite",
				"topeBanco()": "infinite",
				"totalDepositado()": "2491"
			},
			"internal": {
				"_saldoDe(address)": "infinite"
			}
		},
		"methodIdentifiers": {
			"contadorDepositos()": "86968259",
			"contadorRetiros()": "f061293a",
			"depositar()": "3d922f90",
			"limiteRetiro()": "44953313",
			"obtenerSaldo()": "eee7d582",
			"retirar(uint256)": "e8b1298f",
			"topeBanco()": "24e247fe",
			"totalDepositado()": "5f0073d0"
		}
	},
	"abi": [
		{
			"inputs": [
				{
					"internalType": "uint256",
					"name": "_limiteRetiro",
					"type": "uint256"
				},
				{
					"internalType": "uint256",
					"name": "_topeBanco",
					"type": "uint256"
				}
			],
			"stateMutability": "nonpayable",
			"type": "constructor"
		},
		{
			"inputs": [],
			"name": "EnvioETHFallido",
			"type": "error"
		},
		{
			"inputs": [
				{
					"internalType": "uint256",
					"name": "intentado",
					"type": "uint256"
				},
				{
					"internalType": "uint256",
					"name": "limite",
					"type": "uint256"
				}
			],
			"name": "LimiteRetiroSuperado",
			"type": "error"
		},
		{
			"inputs": [],
			"name": "MontoCero",
			"type": "error"
		},
		{
			"inputs": [
				{
					"internalType": "uint256",
					"name": "saldo",
					"type": "uint256"
				},
				{
					"internalType": "uint256",
					"name": "requerido",
					"type": "uint256"
				}
			],
			"name": "SaldoInsuficiente",
			"type": "error"
		},
		{
			"inputs": [
				{
					"internalType": "uint256",
					"name": "intentado",
					"type": "uint256"
				},
				{
					"internalType": "uint256",
					"name": "tope",
					"type": "uint256"
				}
			],
			"name": "TopeDepositosSuperado",
			"type": "error"
		},
		{
			"anonymous": false,
			"inputs": [
				{
					"indexed": false,
					"internalType": "address",
					"name": "cuenta",
					"type": "address"
				},
				{
					"indexed": false,
					"internalType": "uint256",
					"name": "monto",
					"type": "uint256"
				},
				{
					"indexed": false,
					"internalType": "uint256",
					"name": "nuevoSaldo",
					"type": "uint256"
				}
			],
			"name": "Deposito",
			"type": "event"
		},
		{
			"anonymous": false,
			"inputs": [
				{
					"indexed": false,
					"internalType": "address",
					"name": "cuenta",
					"type": "address"
				},
				{
					"indexed": false,
					"internalType": "uint256",
					"name": "monto",
					"type": "uint256"
				},
				{
					"indexed": false,
					"internalType": "uint256",
					"name": "nuevoSaldo",
					"type": "uint256"
				}
			],
			"name": "Retiro",
			"type": "event"
		},
		{
			"inputs": [],
			"name": "contadorDepositos",
			"outputs": [
				{
					"internalType": "uint256",
					"name": "",
					"type": "uint256"
				}
			],
			"stateMutability": "view",
			"type": "function"
		},
		{
			"inputs": [],
			"name": "contadorRetiros",
			"outputs": [
				{
					"internalType": "uint256",
					"name": "",
					"type": "uint256"
				}
			],
			"stateMutability": "view",
			"type": "function"
		},
		{
			"inputs": [],
			"name": "depositar",
			"outputs": [],
			"stateMutability": "payable",
			"type": "function"
		},
		{
			"inputs": [],
			"name": "limiteRetiro",
			"outputs": [
				{
					"internalType": "uint256",
					"name": "",
					"type": "uint256"
				}
			],
			"stateMutability": "view",
			"type": "function"
		},
		{
			"inputs": [],
			"name": "obtenerSaldo",
			"outputs": [
				{
					"internalType": "uint256",
					"name": "",
					"type": "uint256"
				}
			],
			"stateMutability": "view",
			"type": "function"
		},
		{
			"inputs": [
				{
					"internalType": "uint256",
					"name": "monto",
					"type": "uint256"
				}
			],
			"name": "retirar",
			"outputs": [],
			"stateMutability": "nonpayable",
			"type": "function"
		},
		{
			"inputs": [],
			"name": "topeBanco",
			"outputs": [
				{
					"internalType": "uint256",
					"name": "",
					"type": "uint256"
				}
			],
			"stateMutability": "view",
			"type": "function"
		},
		{
			"inputs": [],
			"name": "totalDepositado",
			"outputs": [
				{
					"internalType": "uint256",
					"name": "",
					"type": "uint256"
				}
			],
			"stateMutability": "view",
			"type": "function"
		}
	]
}